{
  "contractName": "TicketNFT",
  "abi": [
    {
      "inputs": [],
      "stateMutability": "nonpayable",
      "type": "constructor"
    },
    {
      "anonymous": false,
      "inputs": [
        {
          "indexed": true,
          "internalType": "address",
          "name": "owner",
          "type": "address"
        },
        {
          "indexed": true,
          "internalType": "address",
          "name": "approved",
          "type": "address"
        },
        {
          "indexed": true,
          "internalType": "uint256",
          "name": "tokenId",
          "type": "uint256"
        }
      ],
      "name": "Approval",
      "type": "event"
    },
    {
      "anonymous": false,
      "inputs": [
        {
          "indexed": true,
          "internalType": "address",
          "name": "owner",
          "type": "address"
        },
        {
          "indexed": true,
          "internalType": "address",
          "name": "operator",
          "type": "address"
        },
        {
          "indexed": false,
          "internalType": "bool",
          "name": "approved",
          "type": "bool"
        }
      ],
      "name": "ApprovalForAll",
      "type": "event"
    },
    {
      "anonymous": false,
      "inputs": [
        {
          "indexed": false,
          "internalType": "uint256",
          "name": "_fromTokenId",
          "type": "uint256"
        },
        {
          "indexed": false,
          "internalType": "uint256",
          "name": "_toTokenId",
          "type": "uint256"
        }
      ],
      "name": "BatchMetadataUpdate",
      "type": "event"
    },
    {
      "anonymous": false,
      "inputs": [
        {
          "indexed": false,
          "internalType": "address",
          "name": "owner",
          "type": "address"
        }
      ],
      "name": "ContractDeployed",
      "type": "event"
    },
    {
      "anonymous": false,
      "inputs": [
        {
          "indexed": false,
          "internalType": "uint256",
          "name": "eventId",
          "type": "uint256"
        },
        {
          "indexed": false,
          "internalType": "string",
          "name": "name",
          "type": "string"
        },
        {
          "indexed": false,
          "internalType": "uint256",
          "name": "price",
          "type": "uint256"
        },
        {
          "indexed": false,
          "internalType": "string",
          "name": "eventURI",
          "type": "string"
        }
      ],
      "name": "EventCreated",
      "type": "event"
    },
    {
      "anonymous": false,
      "inputs": [
        {
          "indexed": false,
          "internalType": "uint256",
          "name": "eventId",
          "type": "uint256"
        }
      ],
      "name": "EventDeleted",
      "type": "event"
    },
    {
      "anonymous": false,
      "inputs": [
        {
          "indexed": false,
          "internalType": "uint256",
          "name": "_tokenId",
          "type": "uint256"
        }
      ],
      "name": "MetadataUpdate",
      "type": "event"
    },
    {
      "anonymous": false,
      "inputs": [
        {
          "indexed": true,
          "internalType": "address",
          "name": "previousOwner",
          "type": "address"
        },
        {
          "indexed": true,
          "internalType": "address",
          "name": "newOwner",
          "type": "address"
        }
      ],
      "name": "OwnershipTransferred",
      "type": "event"
    },
    {
      "anonymous": false,
      "inputs": [
        {
          "indexed": false,
          "internalType": "uint256",
          "name": "tokenId",
          "type": "uint256"
        },
        {
          "indexed": false,
          "internalType": "address",
          "name": "owner",
          "type": "address"
        },
        {
          "indexed": false,
          "internalType": "uint256",
          "name": "price",
          "type": "uint256"
        }
      ],
      "name": "TicketListed",
      "type": "event"
    },
    {
      "anonymous": false,
      "inputs": [
        {
          "indexed": false,
          "internalType": "uint256",
          "name": "tokenId",
          "type": "uint256"
        },
        {
          "indexed": false,
          "internalType": "uint256",
          "name": "eventId",
          "type": "uint256"
        },
        {
          "indexed": false,
          "internalType": "address",
          "name": "owner",
          "type": "address"
        }
      ],
      "name": "TicketMinted",
      "type": "event"
    },
    {
      "anonymous": false,
      "inputs": [
        {
          "indexed": false,
          "internalType": "uint256",
          "name": "tokenId",
          "type": "uint256"
        },
        {
          "indexed": false,
          "internalType": "address",
          "name": "from",
          "type": "address"
        },
        {
          "indexed": false,
          "internalType": "address",
          "name": "to",
          "type": "address"
        },
        {
          "indexed": false,
          "internalType": "uint256",
          "name": "price",
          "type": "uint256"
        }
      ],
      "name": "TicketSold",
      "type": "event"
    },
    {
      "anonymous": false,
      "inputs": [
        {
          "indexed": true,
          "internalType": "address",
          "name": "from",
          "type": "address"
        },
        {
          "indexed": true,
          "internalType": "address",
          "name": "to",
          "type": "address"
        },
        {
          "indexed": true,
          "internalType": "uint256",
          "name": "tokenId",
          "type": "uint256"
        }
      ],
      "name": "Transfer",
      "type": "event"
    },
    {
      "inputs": [
        {
          "internalType": "address",
          "name": "to",
          "type": "address"
        },
        {
          "internalType": "uint256",
          "name": "tokenId",
          "type": "uint256"
        }
      ],
      "name": "approve",
      "outputs": [],
      "stateMutability": "nonpayable",
      "type": "function"
    },
    {
      "inputs": [
        {
          "internalType": "address",
          "name": "owner",
          "type": "address"
        }
      ],
      "name": "balanceOf",
      "outputs": [
        {
          "internalType": "uint256",
          "name": "",
          "type": "uint256"
        }
      ],
      "stateMutability": "view",
      "type": "function",
      "constant": true
    },
    {
      "inputs": [
        {
          "internalType": "uint256",
          "name": "",
          "type": "uint256"
        }
      ],
      "name": "eventList",
      "outputs": [
        {
          "internalType": "uint256",
          "name": "",
          "type": "uint256"
        }
      ],
      "stateMutability": "view",
      "type": "function",
      "constant": true
    },
    {
      "inputs": [
        {
          "internalType": "uint256",
          "name": "",
          "type": "uint256"
        }
      ],
      "name": "events",
      "outputs": [
        {
          "internalType": "string",
          "name": "name",
          "type": "string"
        },
        {
          "internalType": "uint256",
          "name": "originalPrice",
          "type": "uint256"
        },
        {
          "internalType": "uint256",
          "name": "maxResalePrice",
          "type": "uint256"
        },
        {
          "internalType": "uint256",
          "name": "royaltyPercentage",
          "type": "uint256"
        },
        {
          "internalType": "bool",
          "name": "active",
          "type": "bool"
        },
        {
          "internalType": "address",
          "name": "organizer",
          "type": "address"
        },
        {
          "internalType": "string",
          "name": "eventURI",
          "type": "string"
        }
      ],
      "stateMutability": "view",
      "type": "function",
      "constant": true
    },
    {
      "inputs": [
        {
          "internalType": "uint256",
          "name": "tokenId",
          "type": "uint256"
        }
      ],
      "name": "getApproved",
      "outputs": [
        {
          "internalType": "address",
          "name": "",
          "type": "address"
        }
      ],
      "stateMutability": "view",
      "type": "function",
      "constant": true
    },
    {
      "inputs": [
        {
          "internalType": "address",
          "name": "owner",
          "type": "address"
        },
        {
          "internalType": "address",
          "name": "operator",
          "type": "address"
        }
      ],
      "name": "isApprovedForAll",
      "outputs": [
        {
          "internalType": "bool",
          "name": "",
          "type": "bool"
        }
      ],
      "stateMutability": "view",
      "type": "function",
      "constant": true
    },
    {
      "inputs": [
        {
          "internalType": "uint256",
          "name": "",
          "type": "uint256"
        }
      ],
      "name": "listedTickets",
      "outputs": [
        {
          "internalType": "uint256",
          "name": "",
          "type": "uint256"
        }
      ],
      "stateMutability": "view",
      "type": "function",
      "constant": true
    },
    {
      "inputs": [],
      "name": "name",
      "outputs": [
        {
          "internalType": "string",
          "name": "",
          "type": "string"
        }
      ],
      "stateMutability": "view",
      "type": "function",
      "constant": true
    },
    {
      "inputs": [],
      "name": "owner",
      "outputs": [
        {
          "internalType": "address",
          "name": "",
          "type": "address"
        }
      ],
      "stateMutability": "view",
      "type": "function",
      "constant": true
    },
    {
      "inputs": [
        {
          "internalType": "uint256",
          "name": "tokenId",
          "type": "uint256"
        }
      ],
      "name": "ownerOf",
      "outputs": [
        {
          "internalType": "address",
          "name": "",
          "type": "address"
        }
      ],
      "stateMutability": "view",
      "type": "function",
      "constant": true
    },
    {
      "inputs": [],
      "name": "renounceOwnership",
      "outputs": [],
      "stateMutability": "nonpayable",
      "type": "function"
    },
    {
      "inputs": [
        {
          "internalType": "address",
          "name": "from",
          "type": "address"
        },
        {
          "internalType": "address",
          "name": "to",
          "type": "address"
        },
        {
          "internalType": "uint256",
          "name": "tokenId",
          "type": "uint256"
        }
      ],
      "name": "safeTransferFrom",
      "outputs": [],
      "stateMutability": "nonpayable",
      "type": "function"
    },
    {
      "inputs": [
        {
          "internalType": "address",
          "name": "from",
          "type": "address"
        },
        {
          "internalType": "address",
          "name": "to",
          "type": "address"
        },
        {
          "internalType": "uint256",
          "name": "tokenId",
          "type": "uint256"
        },
        {
          "internalType": "bytes",
          "name": "data",
          "type": "bytes"
        }
      ],
      "name": "safeTransferFrom",
      "outputs": [],
      "stateMutability": "nonpayable",
      "type": "function"
    },
    {
      "inputs": [
        {
          "internalType": "address",
          "name": "operator",
          "type": "address"
        },
        {
          "internalType": "bool",
          "name": "approved",
          "type": "bool"
        }
      ],
      "name": "setApprovalForAll",
      "outputs": [],
      "stateMutability": "nonpayable",
      "type": "function"
    },
    {
      "inputs": [
        {
          "internalType": "bytes4",
          "name": "interfaceId",
          "type": "bytes4"
        }
      ],
      "name": "supportsInterface",
      "outputs": [
        {
          "internalType": "bool",
          "name": "",
          "type": "bool"
        }
      ],
      "stateMutability": "view",
      "type": "function",
      "constant": true
    },
    {
      "inputs": [],
      "name": "symbol",
      "outputs": [
        {
          "internalType": "string",
          "name": "",
          "type": "string"
        }
      ],
      "stateMutability": "view",
      "type": "function",
      "constant": true
    },
    {
      "inputs": [
        {
          "internalType": "uint256",
          "name": "",
          "type": "uint256"
        }
      ],
      "name": "tickets",
      "outputs": [
        {
          "internalType": "uint256",
          "name": "eventId",
          "type": "uint256"
        },
        {
          "internalType": "uint256",
          "name": "originalPrice",
          "type": "uint256"
        }
      ],
      "stateMutability": "view",
      "type": "function",
      "constant": true
    },
    {
      "inputs": [
        {
          "internalType": "uint256",
          "name": "tokenId",
          "type": "uint256"
        }
      ],
      "name": "tokenURI",
      "outputs": [
        {
          "internalType": "string",
          "name": "",
          "type": "string"
        }
      ],
      "stateMutability": "view",
      "type": "function",
      "constant": true
    },
    {
      "inputs": [
        {
          "internalType": "address",
          "name": "from",
          "type": "address"
        },
        {
          "internalType": "address",
          "name": "to",
          "type": "address"
        },
        {
          "internalType": "uint256",
          "name": "tokenId",
          "type": "uint256"
        }
      ],
      "name": "transferFrom",
      "outputs": [],
      "stateMutability": "nonpayable",
      "type": "function"
    },
    {
      "inputs": [
        {
          "internalType": "address",
          "name": "newOwner",
          "type": "address"
        }
      ],
      "name": "transferOwnership",
      "outputs": [],
      "stateMutability": "nonpayable",
      "type": "function"
    },
    {
      "inputs": [
        {
          "internalType": "string",
          "name": "name",
          "type": "string"
        },
        {
          "internalType": "uint256",
          "name": "price",
          "type": "uint256"
        },
        {
          "internalType": "uint256",
          "name": "maxResalePrice",
          "type": "uint256"
        },
        {
          "internalType": "uint256",
          "name": "royaltyPercentage",
          "type": "uint256"
        },
        {
          "internalType": "string",
          "name": "eventURI",
          "type": "string"
        }
      ],
      "name": "createEvent",
      "outputs": [
        {
          "internalType": "uint256",
          "name": "",
          "type": "uint256"
        }
      ],
      "stateMutability": "nonpayable",
      "type": "function"
    },
    {
      "inputs": [
        {
          "internalType": "uint256",
          "name": "eventId",
          "type": "uint256"
        }
      ],
      "name": "deleteEvent",
      "outputs": [],
      "stateMutability": "nonpayable",
      "type": "function"
    },
    {
      "inputs": [],
      "name": "showEvents",
      "outputs": [
        {
          "components": [
            {
              "internalType": "string",
              "name": "name",
              "type": "string"
            },
            {
              "internalType": "uint256",
              "name": "originalPrice",
              "type": "uint256"
            },
            {
              "internalType": "uint256",
              "name": "maxResalePrice",
              "type": "uint256"
            },
            {
              "internalType": "uint256",
              "name": "royaltyPercentage",
              "type": "uint256"
            },
            {
              "internalType": "bool",
              "name": "active",
              "type": "bool"
            },
            {
              "internalType": "address",
              "name": "organizer",
              "type": "address"
            },
            {
              "internalType": "string",
              "name": "eventURI",
              "type": "string"
            }
          ],
          "internalType": "struct TicketNFT.Event[]",
          "name": "",
          "type": "tuple[]"
        }
      ],
      "stateMutability": "view",
      "type": "function",
      "constant": true
    },
    {
      "inputs": [
        {
          "internalType": "uint256",
          "name": "eventId",
          "type": "uint256"
        }
      ],
      "name": "mintTicket",
      "outputs": [
        {
          "internalType": "uint256",
          "name": "",
          "type": "uint256"
        }
      ],
      "stateMutability": "payable",
      "type": "function",
      "payable": true
    },
    {
      "inputs": [
        {
          "internalType": "uint256",
          "name": "tokenId",
          "type": "uint256"
        },
        {
          "internalType": "uint256",
          "name": "price",
          "type": "uint256"
        }
      ],
      "name": "listTicket",
      "outputs": [],
      "stateMutability": "nonpayable",
      "type": "function"
    },
    {
      "inputs": [],
      "name": "showListedTickets",
      "outputs": [
        {
          "internalType": "uint256[]",
          "name": "",
          "type": "uint256[]"
        }
      ],
      "stateMutability": "view",
      "type": "function",
      "constant": true
    },
    {
      "inputs": [
        {
          "internalType": "uint256",
          "name": "tokenId",
          "type": "uint256"
        }
      ],
      "name": "getTicketOwners",
      "outputs": [
        {
          "components": [
            {
              "internalType": "address",
              "name": "owner",
              "type": "address"
            },
            {
              "internalType": "uint256",
              "name": "price",
              "type": "uint256"
            },
            {
              "internalType": "bool",
              "name": "forSale",
              "type": "bool"
            }
          ],
          "internalType": "struct TicketNFT.TicketOwner[]",
          "name": "",
          "type": "tuple[]"
        }
      ],
      "stateMutability": "view",
      "type": "function",
      "constant": true
    }
  ],
  "bytecode": "0x608060405260006009553480156200001657600080fd5b506040518060400160405280600c81526020016b115d995b9d08151a58dad95d60a21b81525060405180604001604052806004815260200163151252d560e21b81525081600090816200006a9190620001ca565b506001620000798282620001ca565b5050506200009662000090620000cf60201b60201c565b620000d3565b6040513381527f8ffcdc15a283d706d38281f500270d8b5a656918f555de0913d7455e3e6bc1bf9060200160405180910390a162000296565b3390565b600780546001600160a01b038381166001600160a01b0319831681179093556040519116919082907f8be0079c531659141344cd1fd0a4f28419497f9722a3daafe3b4186f6b6457e090600090a35050565b634e487b7160e01b600052604160045260246000fd5b600181811c908216806200015057607f821691505b6020821081036200017157634e487b7160e01b600052602260045260246000fd5b50919050565b601f821115620001c557600081815260208120601f850160051c81016020861015620001a05750805b601f850160051c820191505b81811015620001c157828155600101620001ac565b5050505b505050565b81516001600160401b03811115620001e657620001e662000125565b620001fe81620001f784546200013b565b8462000177565b602080601f8311600181146200023657600084156200021d5750858301515b600019600386901b1c1916600185901b178555620001c1565b600085815260208120601f198616915b82811015620002675788860151825594840194600190910190840162000246565b5085821015620002865787850151600019600388901b60f8161c191681555b5050505050600190811b01905550565b612c0280620002a66000396000f3fe60806040526004361061019c5760003560e01c806350b44712116100ec578063a22cb4651161008a578063e6ba269011610064578063e6ba2690146104e8578063e985e9c514610508578063f2fde38b14610528578063f8749a581461054857600080fd5b8063a22cb46514610488578063b88d4fde146104a8578063c87b56dd146104c857600080fd5b806370a08231116100c657806370a0823114610420578063715018a6146104405780638da5cb5b1461045557806395d89b411461047357600080fd5b806350b44712146103975780636125401b146103e05780636352211e1461040057600080fd5b806323b872dd1161015957806336a65e801161013357806336a65e801461030857806342842e0e14610335578063493280d2146103555780634cac31501461037557600080fd5b806323b872dd146102a7578063256d52f6146102c7578063305a905a146102e857600080fd5b806301ffc9a7146101a157806306fdde03146101d6578063081812fc146101f8578063095ea7b3146102305780630b7914301461025257806313293b4014610285575b600080fd5b3480156101ad57600080fd5b506101c16101bc366004612330565b610568565b60405190151581526020015b60405180910390f35b3480156101e257600080fd5b506101eb610593565b6040516101cd919061239d565b34801561020457600080fd5b506102186102133660046123b0565b610625565b6040516001600160a01b0390911681526020016101cd565b34801561023c57600080fd5b5061025061024b3660046123e5565b61064c565b005b34801561025e57600080fd5b5061027261026d3660046123b0565b610766565b6040516101cd979695949392919061240f565b34801561029157600080fd5b5061029a6108c4565b6040516101cd919061246e565b3480156102b357600080fd5b506102506102c2366004612534565b610c04565b6102da6102d53660046123b0565b610c35565b6040519081526020016101cd565b3480156102f457600080fd5b50610250610303366004612570565b610f0d565b34801561031457600080fd5b506103286103233660046123b0565b6111d8565b6040516101cd9190612592565b34801561034157600080fd5b50610250610350366004612534565b611275565b34801561036157600080fd5b506102da6103703660046123b0565b611290565b34801561038157600080fd5b5061038a6112b1565b6040516101cd91906125f6565b3480156103a357600080fd5b506103cb6103b23660046123b0565b600b602052600090815260409020805460019091015482565b604080519283526020830191909152016101cd565b3480156103ec57600080fd5b506102da6103fb3660046123b0565b611308565b34801561040c57600080fd5b5061021861041b3660046123b0565b611318565b34801561042c57600080fd5b506102da61043b36600461263a565b611378565b34801561044c57600080fd5b506102506113fe565b34801561046157600080fd5b506007546001600160a01b0316610218565b34801561047f57600080fd5b506101eb611412565b34801561049457600080fd5b506102506104a3366004612655565b611421565b3480156104b457600080fd5b506102506104c336600461271d565b611430565b3480156104d457600080fd5b506101eb6104e33660046123b0565b611468565b3480156104f457600080fd5b506102da6105033660046127b9565b611578565b34801561051457600080fd5b506101c161052336600461283a565b61172e565b34801561053457600080fd5b5061025061054336600461263a565b61175c565b34801561055457600080fd5b506102506105633660046123b0565b6117d5565b60006001600160e01b03198216632483248360e11b148061058d575061058d82611958565b92915050565b6060600080546105a29061286d565b80601f01602080910402602001604051908101604052809291908181526020018280546105ce9061286d565b801561061b5780601f106105f05761010080835404028352916020019161061b565b820191906000526020600020905b8154815290600101906020018083116105fe57829003601f168201915b5050505050905090565b6000610630826119a8565b506000908152600460205260409020546001600160a01b031690565b600061065782611318565b9050806001600160a01b0316836001600160a01b0316036106c95760405162461bcd60e51b815260206004820152602160248201527f4552433732313a20617070726f76616c20746f2063757272656e74206f776e656044820152603960f91b60648201526084015b60405180910390fd5b336001600160a01b03821614806106e557506106e5813361172e565b6107575760405162461bcd60e51b815260206004820152603d60248201527f4552433732313a20617070726f76652063616c6c6572206973206e6f7420746f60448201527f6b656e206f776e6572206f7220617070726f76656420666f7220616c6c00000060648201526084016106c0565b6107618383611a07565b505050565b600a602052600090815260409020805481906107819061286d565b80601f01602080910402602001604051908101604052809291908181526020018280546107ad9061286d565b80156107fa5780601f106107cf576101008083540402835291602001916107fa565b820191906000526020600020905b8154815290600101906020018083116107dd57829003601f168201915b50505050600183015460028401546003850154600486015460058701805496979496939550919360ff8216936101009092046001600160a01b03169290916108419061286d565b80601f016020809104026020016040519081016040528092919081815260200182805461086d9061286d565b80156108ba5780601f1061088f576101008083540402835291602001916108ba565b820191906000526020600020905b81548152906001019060200180831161089d57829003601f168201915b5050505050905087565b60606000805b600c5481101561093257600a6000600c83815481106108eb576108eb6128a7565b6000918252602080832090910154835282019290925260400190206004015460ff1615610920578161091c816128d3565b9250505b8061092a816128d3565b9150506108ca565b5060008167ffffffffffffffff81111561094e5761094e612691565b6040519080825280602002602001820160405280156109ca57816020015b6109b76040518060e001604052806060815260200160008152602001600081526020016000815260200160001515815260200160006001600160a01b03168152602001606081525090565b81526020019060019003908161096c5790505b5090506000805b600c54811015610bfb57600a6000600c83815481106109f2576109f26128a7565b6000918252602080832090910154835282019290925260400190206004015460ff1615610be957600a6000600c8381548110610a3057610a306128a7565b906000526020600020015481526020019081526020016000206040518060e0016040529081600082018054610a649061286d565b80601f0160208091040260200160405190810160405280929190818152602001828054610a909061286d565b8015610add5780601f10610ab257610100808354040283529160200191610add565b820191906000526020600020905b815481529060010190602001808311610ac057829003601f168201915b5050509183525050600182015460208201526002820154604082015260038201546060820152600482015460ff81161515608083015261010090046001600160a01b031660a082015260058201805460c090920191610b3b9061286d565b80601f0160208091040260200160405190810160405280929190818152602001828054610b679061286d565b8015610bb45780601f10610b8957610100808354040283529160200191610bb4565b820191906000526020600020905b815481529060010190602001808311610b9757829003601f168201915b505050505081525050838381518110610bcf57610bcf6128a7565b60200260200101819052508180610be5906128d3565b9250505b80610bf3816128d3565b9150506109d1565b50909392505050565b610c0e3382611a75565b610c2a5760405162461bcd60e51b81526004016106c0906128ec565b610761838383611ad3565b6000818152600a60205260408120600481015460ff16610ca55760405162461bcd60e51b815260206004820152602560248201527f4576656e7420646f6573206e6f74206578697374206f72206973206e6f742061604482015264637469766560d81b60648201526084016106c0565b8060010154341015610cf05760405162461bcd60e51b8152602060048201526014602482015273125b9cdd59999a58da595b9d081c185e5b595b9d60621b60448201526064016106c0565b8060010154341115610d3b57600181015433906108fc90610d119034612939565b6040518115909202916000818181858888f19350505050158015610d39573d6000803e3d6000fd5b505b600481015460018201546040516101009092046001600160a01b0316916108fc82150291906000818181858888f19350505050158015610d7f573d6000803e3d6000fd5b50610d8e600880546001019055565b6000610d9960085490565b9050610da53382611c37565b610e3b81836005018054610db89061286d565b80601f0160208091040260200160405190810160405280929190818152602001828054610de49061286d565b8015610e315780601f10610e0657610100808354040283529160200191610e31565b820191906000526020600020905b815481529060010190602001808311610e1457829003601f168201915b5050505050611dc2565b6000818152600b6020908152604080832087815560018681015481830181905583516060808201865233808352828801938452828701898152600296870180548088018255908b529989902093516003909a0290930180546001600160a01b0319166001600160a01b03909a169990991789559251938801939093555195909201805460ff1916951515959095179094558151858152928301889052908201527f085ec0eff4bf526b0dd054adffcd8bd8da42126a1133ce302042973f32029fb0910160405180910390a19392505050565b6000828152600b60205260408120905b600282015481101561118f57336001600160a01b0316826002018281548110610f4857610f486128a7565b60009182526020909120600390910201546001600160a01b03160361117d57816002018181548110610f7c57610f7c6128a7565b600091825260209091206002600390920201015460ff1615610fe05760405162461bcd60e51b815260206004820152601860248201527f5469636b657420697320616c7265616479206c6973746564000000000000000060448201526064016106c0565b81546000908152600a60205260409020600201548311156110435760405162461bcd60e51b815260206004820152601e60248201527f50726963652065786365656473206d617820726573616c652076616c7565000060448201526064016106c0565b600182600201828154811061105a5761105a6128a7565b906000526020600020906003020160020160006101000a81548160ff02191690831515021790555082826002018281548110611098576110986128a7565b9060005260206000209060030201600101819055506000805b600d548110156110fa5785600d82815481106110cf576110cf6128a7565b9060005260206000200154036110e857600191506110fa565b806110f2816128d3565b9150506110b1565b508061113657600d80546001810182556000919091527fd7b6990105719101dabeb77144f2a3385c8033acd3af97e9423a695e81ad1eb5018590555b604080518681523360208201529081018590527f22968ec3be3687b180f3544163a034b88d57b48159d9a7e9a1b610fdb2d05f809060600160405180910390a15050505050565b80611187816128d3565b915050610f1d565b5060405162461bcd60e51b815260206004820152601a60248201527f596f7520646f206e6f74206f776e2074686973207469636b657400000000000060448201526064016106c0565b6060600b6000838152602001908152602001600020600201805480602002602001604051908101604052809291908181526020016000905b8282101561126a576000848152602090819020604080516060810182526003860290920180546001600160a01b031683526001808201548486015260029091015460ff161515918301919091529083529092019101611210565b505050509050919050565b61076183838360405180602001604052806000815250611430565b600c81815481106112a057600080fd5b600091825260209091200154905081565b6060600d80548060200260200160405190810160405280929190818152602001828054801561061b57602002820191906000526020600020905b8154815260200190600101908083116112eb575050505050905090565b600d81815481106112a057600080fd5b6000818152600260205260408120546001600160a01b03168061058d5760405162461bcd60e51b8152602060048201526018602482015277115490cdcc8c4e881a5b9d985b1a59081d1bdad95b88125160421b60448201526064016106c0565b60006001600160a01b0382166113e25760405162461bcd60e51b815260206004820152602960248201527f4552433732313a2061646472657373207a65726f206973206e6f7420612076616044820152683634b21037bbb732b960b91b60648201526084016106c0565b506001600160a01b031660009081526003602052604090205490565b611406611e8d565b6114106000611ee7565b565b6060600180546105a29061286d565b61142c338383611f39565b5050565b61143a3383611a75565b6114565760405162461bcd60e51b81526004016106c0906128ec565b61146284848484612007565b50505050565b6060611473826119a8565b6000828152600660205260408120805461148c9061286d565b80601f01602080910402602001604051908101604052809291908181526020018280546114b89061286d565b80156115055780601f106114da57610100808354040283529160200191611505565b820191906000526020600020905b8154815290600101906020018083116114e857829003601f168201915b50505050509050600061152360408051602081019091526000815290565b90508051600003611535575092915050565b81511561156757808260405160200161154f92919061294c565b60405160208183030381529060405292505050919050565b6115708461203a565b949350505050565b600060198311156115cb5760405162461bcd60e51b815260206004820152601960248201527f526f79616c74792063616e6e6f7420657863656564203235250000000000000060448201526064016106c0565b600980549060006115db836128d3565b90915550506040805160e081018252878152602080820188905281830187905260608201869052600160808301523360a083015260c082018590526009546000908152600a909152919091208151819061163590826129c9565b50602082015160018201556040820151600282015560608201516003820155608082015160048201805460a08501516001600160a01b031661010002610100600160a81b0319931515939093166001600160a81b03199091161791909117905560c082015160058201906116a990826129c9565b5050600954600c80546001810182556000919091527fdf6966c971051c3d54ec59162606531493a51404a002842f56009d7e5cf4a8c7018190556040517f2f46aa03f444b4d078142c9e6c82942e92866f5b8992a3612b4a1762188c968292506117199190899089908790612a89565b60405180910390a15060095495945050505050565b6001600160a01b03918216600090815260056020908152604080832093909416825291909152205460ff1690565b611764611e8d565b6001600160a01b0381166117c95760405162461bcd60e51b815260206004820152602660248201527f4f776e61626c653a206e6577206f776e657220697320746865207a65726f206160448201526564647265737360d01b60648201526084016106c0565b6117d281611ee7565b50565b6117dd611e8d565b6000818152600a602052604090206004015460ff166118515760405162461bcd60e51b815260206004820152602a60248201527f4576656e7420646f6573206e6f74206578697374206f7220697320616c726561604482015269191e4819195b195d195960b21b60648201526084016106c0565b6000818152600a60205260408120600401805460ff191690555b600c548110156119215781600c8281548110611889576118896128a7565b90600052602060002001540361190f57600c80546118a990600190612939565b815481106118b9576118b96128a7565b9060005260206000200154600c82815481106118d7576118d76128a7565b600091825260209091200155600c8054806118f4576118f4612ac5565b60019003818190600052602060002001600090559055611921565b80611919816128d3565b91505061186b565b506040518181527f24089da2b94d456671c6e08e154081718367fe1b3eb2bf048f9ded0b2ce2270a9060200160405180910390a150565b60006001600160e01b031982166380ac58cd60e01b148061198957506001600160e01b03198216635b5e139f60e01b145b8061058d57506301ffc9a760e01b6001600160e01b031983161461058d565b6000818152600260205260409020546001600160a01b03166117d25760405162461bcd60e51b8152602060048201526018602482015277115490cdcc8c4e881a5b9d985b1a59081d1bdad95b88125160421b60448201526064016106c0565b600081815260046020526040902080546001600160a01b0319166001600160a01b0384169081179091558190611a3c82611318565b6001600160a01b03167f8c5be1e5ebec7d5bd14f71427d1e84f3dd0314c0f7b2291e5b200ac8c7c3b92560405160405180910390a45050565b600080611a8183611318565b9050806001600160a01b0316846001600160a01b03161480611aa85750611aa8818561172e565b806115705750836001600160a01b0316611ac184610625565b6001600160a01b031614949350505050565b826001600160a01b0316611ae682611318565b6001600160a01b031614611b0c5760405162461bcd60e51b81526004016106c090612adb565b6001600160a01b038216611b6e5760405162461bcd60e51b8152602060048201526024808201527f4552433732313a207472616e7366657220746f20746865207a65726f206164646044820152637265737360e01b60648201526084016106c0565b826001600160a01b0316611b8182611318565b6001600160a01b031614611ba75760405162461bcd60e51b81526004016106c090612adb565b600081815260046020908152604080832080546001600160a01b03199081169091556001600160a01b0387811680865260038552838620805460001901905590871680865283862080546001019055868652600290945282852080549092168417909155905184937fddf252ad1be2c89b69c2b068fc378daa952ba7f163c4a11628f55a4df523b3ef91a4505050565b6001600160a01b038216611c8d5760405162461bcd60e51b815260206004820181905260248201527f4552433732313a206d696e7420746f20746865207a65726f206164647265737360448201526064016106c0565b6000818152600260205260409020546001600160a01b031615611cf25760405162461bcd60e51b815260206004820152601c60248201527f4552433732313a20746f6b656e20616c7265616479206d696e7465640000000060448201526064016106c0565b6000818152600260205260409020546001600160a01b031615611d575760405162461bcd60e51b815260206004820152601c60248201527f4552433732313a20746f6b656e20616c7265616479206d696e7465640000000060448201526064016106c0565b6001600160a01b038216600081815260036020908152604080832080546001019055848352600290915280822080546001600160a01b0319168417905551839291907fddf252ad1be2c89b69c2b068fc378daa952ba7f163c4a11628f55a4df523b3ef908290a45050565b6000828152600260205260409020546001600160a01b0316611e3d5760405162461bcd60e51b815260206004820152602e60248201527f45524337323155524953746f726167653a2055524920736574206f66206e6f6e60448201526d32bc34b9ba32b73a103a37b5b2b760911b60648201526084016106c0565b6000828152600660205260409020611e5582826129c9565b506040518281527ff8e1a15aba9398e019f0b49df1a4fde98ee17ae345cb5f6b5e2c27f5033e8ce79060200160405180910390a15050565b6007546001600160a01b031633146114105760405162461bcd60e51b815260206004820181905260248201527f4f776e61626c653a2063616c6c6572206973206e6f7420746865206f776e657260448201526064016106c0565b600780546001600160a01b038381166001600160a01b0319831681179093556040519116919082907f8be0079c531659141344cd1fd0a4f28419497f9722a3daafe3b4186f6b6457e090600090a35050565b816001600160a01b0316836001600160a01b031603611f9a5760405162461bcd60e51b815260206004820152601960248201527f4552433732313a20617070726f766520746f2063616c6c65720000000000000060448201526064016106c0565b6001600160a01b03838116600081815260056020908152604080832094871680845294825291829020805460ff191686151590811790915591519182527f17307eab39ab6107e8899845ad3d59bd9653f200f220920489ca2b5937696c31910160405180910390a3505050565b612012848484611ad3565b61201e848484846120ae565b6114625760405162461bcd60e51b81526004016106c090612b20565b6060612045826119a8565b600061205c60408051602081019091526000815290565b9050600081511161207c57604051806020016040528060008152506120a7565b80612086846121af565b60405160200161209792919061294c565b6040516020818303038152906040525b9392505050565b60006001600160a01b0384163b156121a457604051630a85bd0160e11b81526001600160a01b0385169063150b7a02906120f2903390899088908890600401612b72565b6020604051808303816000875af192505050801561212d575060408051601f3d908101601f1916820190925261212a91810190612baf565b60015b61218a573d80801561215b576040519150601f19603f3d011682016040523d82523d6000602084013e612160565b606091505b5080516000036121825760405162461bcd60e51b81526004016106c090612b20565b805181602001fd5b6001600160e01b031916630a85bd0160e11b149050611570565b506001949350505050565b606060006121bc83612242565b600101905060008167ffffffffffffffff8111156121dc576121dc612691565b6040519080825280601f01601f191660200182016040528015612206576020820181803683370190505b5090508181016020015b600019016f181899199a1a9b1b9c1cb0b131b232b360811b600a86061a8153600a850494508461221057509392505050565b60008072184f03e93ff9f4daa797ed6e38ed64bf6a1f0160401b83106122815772184f03e93ff9f4daa797ed6e38ed64bf6a1f0160401b830492506040015b6d04ee2d6d415b85acef810000000083106122ad576d04ee2d6d415b85acef8100000000830492506020015b662386f26fc1000083106122cb57662386f26fc10000830492506010015b6305f5e10083106122e3576305f5e100830492506008015b61271083106122f757612710830492506004015b60648310612309576064830492506002015b600a831061058d5760010192915050565b6001600160e01b0319811681146117d257600080fd5b60006020828403121561234257600080fd5b81356120a78161231a565b60005b83811015612368578181015183820152602001612350565b50506000910152565b6000815180845261238981602086016020860161234d565b601f01601f19169290920160200192915050565b6020815260006120a76020830184612371565b6000602082840312156123c257600080fd5b5035919050565b80356001600160a01b03811681146123e057600080fd5b919050565b600080604083850312156123f857600080fd5b612401836123c9565b946020939093013593505050565b60e08152600061242260e083018a612371565b60208301899052604083018890526060830187905285151560808401526001600160a01b03851660a084015282810360c08401526124608185612371565b9a9950505050505050505050565b60006020808301818452808551808352604092508286019150828160051b87010184880160005b8381101561252657603f19898403018552815160e081518186526124bb82870182612371565b838b0151878c0152898401518a8801526060808501519088015260808085015115159088015260a0808501516001600160a01b03169088015260c09384015187820394880194909452915061251290508183612371565b968901969450505090860190600101612495565b509098975050505050505050565b60008060006060848603121561254957600080fd5b612552846123c9565b9250612560602085016123c9565b9150604084013590509250925092565b6000806040838503121561258357600080fd5b50508035926020909101359150565b602080825282518282018190526000919060409081850190868401855b828110156125e957815180516001600160a01b031685528681015187860152850151151585850152606090930192908501906001016125af565b5091979650505050505050565b6020808252825182820181905260009190848201906040850190845b8181101561262e57835183529284019291840191600101612612565b50909695505050505050565b60006020828403121561264c57600080fd5b6120a7826123c9565b6000806040838503121561266857600080fd5b612671836123c9565b91506020830135801515811461268657600080fd5b809150509250929050565b634e487b7160e01b600052604160045260246000fd5b600067ffffffffffffffff808411156126c2576126c2612691565b604051601f8501601f19908116603f011681019082821181831017156126ea576126ea612691565b8160405280935085815286868601111561270357600080fd5b858560208301376000602087830101525050509392505050565b6000806000806080858703121561273357600080fd5b61273c856123c9565b935061274a602086016123c9565b925060408501359150606085013567ffffffffffffffff81111561276d57600080fd5b8501601f8101871361277e57600080fd5b61278d878235602084016126a7565b91505092959194509250565b600082601f8301126127aa57600080fd5b6120a7838335602085016126a7565b600080600080600060a086880312156127d157600080fd5b853567ffffffffffffffff808211156127e957600080fd5b6127f589838a01612799565b9650602088013595506040880135945060608801359350608088013591508082111561282057600080fd5b5061282d88828901612799565b9150509295509295909350565b6000806040838503121561284d57600080fd5b612856836123c9565b9150612864602084016123c9565b90509250929050565b600181811c9082168061288157607f821691505b6020821081036128a157634e487b7160e01b600052602260045260246000fd5b50919050565b634e487b7160e01b600052603260045260246000fd5b634e487b7160e01b600052601160045260246000fd5b6000600182016128e5576128e56128bd565b5060010190565b6020808252602d908201527f4552433732313a2063616c6c6572206973206e6f7420746f6b656e206f776e6560408201526c1c881bdc88185c1c1c9bdd9959609a1b606082015260800190565b8181038181111561058d5761058d6128bd565b6000835161295e81846020880161234d565b83519083019061297281836020880161234d565b01949350505050565b601f82111561076157600081815260208120601f850160051c810160208610156129a25750805b601f850160051c820191505b818110156129c1578281556001016129ae565b505050505050565b815167ffffffffffffffff8111156129e3576129e3612691565b6129f7816129f1845461286d565b8461297b565b602080601f831160018114612a2c5760008415612a145750858301515b600019600386901b1c1916600185901b1785556129c1565b600085815260208120601f198616915b82811015612a5b57888601518255948401946001909101908401612a3c565b5085821015612a795787850151600019600388901b60f8161c191681555b5050505050600190811b01905550565b848152608060208201526000612aa26080830186612371565b8460408401528281036060840152612aba8185612371565b979650505050505050565b634e487b7160e01b600052603160045260246000fd5b60208082526025908201527f4552433732313a207472616e736665722066726f6d20696e636f72726563742060408201526437bbb732b960d91b606082015260800190565b60208082526032908201527f4552433732313a207472616e7366657220746f206e6f6e20455243373231526560408201527131b2b4bb32b91034b6b83632b6b2b73a32b960711b606082015260800190565b6001600160a01b0385811682528416602082015260408101839052608060608201819052600090612ba590830184612371565b9695505050505050565b600060208284031215612bc157600080fd5b81516120a78161231a56fea2646970667358221220b9f9b526017ce4305a3dd9db527d19e11c87878bff23fede058c8dcaaf9d638864736f6c63430008110033",
  "immutableReferences": {},
  "source": "// SPDX-License-Identifier: MIT\r\npragma solidity ^0.8.17;\r\n\r\nimport \"@openzeppelin/contracts/token/ERC721/extensions/ERC721URIStorage.sol\";\r\nimport \"@openzeppelin/contracts/access/Ownable.sol\";\r\nimport \"@openzeppelin/contracts/utils/Counters.sol\";\r\n\r\ncontract TicketNFT is ERC721URIStorage, Ownable {\r\n    using Counters for Counters.Counter;\r\n    Counters.Counter private _tokenIds;\r\n    uint256 private _eventIds = 0;\r\n\r\n    struct Event {\r\n        string name;\r\n        uint256 originalPrice;\r\n        uint256 maxResalePrice;\r\n        uint256 royaltyPercentage;\r\n        bool active;\r\n        address organizer;\r\n        string eventURI;\r\n    }\r\n\r\n    struct TicketOwner {\r\n        address owner;\r\n        uint256 price;\r\n        bool forSale;\r\n    }\r\n\r\n    struct Ticket {\r\n        uint256 eventId;\r\n        uint256 originalPrice;\r\n        TicketOwner[] owners;\r\n    }\r\n\r\n    mapping(uint256 => Event) public events;\r\n    mapping(uint256 => Ticket) public tickets;\r\n    uint256[] public eventList;\r\n    uint256[] public listedTickets;\r\n\r\n    event EventCreated(uint256 eventId, string name, uint256 price, string eventURI);\r\n    event EventDeleted(uint256 eventId);\r\n    event TicketMinted(uint256 tokenId, uint256 eventId, address owner);\r\n    event TicketListed(uint256 tokenId, address owner, uint256 price);\r\n    event TicketSold(uint256 tokenId, address from, address to, uint256 price);\r\n    event ContractDeployed(address owner);\r\n\r\n    constructor() ERC721(\"Event Ticket\", \"TIKT\") Ownable() {\r\n        emit ContractDeployed(msg.sender);\r\n    }\r\n\r\n    function createEvent(\r\n    string memory name,\r\n    uint256 price, // Pass price in Wei directly from frontend\r\n    uint256 maxResalePrice,\r\n    uint256 royaltyPercentage,\r\n    string memory eventURI\r\n) public returns (uint256) {\r\n    require(royaltyPercentage <= 25, \"Royalty cannot exceed 25%\");\r\n\r\n    _eventIds++;\r\n    events[_eventIds] = Event({\r\n        name: name,\r\n        originalPrice: price, //  Fix: No multiplication\r\n        maxResalePrice: maxResalePrice,\r\n        royaltyPercentage: royaltyPercentage,\r\n        active: true,\r\n        organizer: msg.sender,\r\n        eventURI: eventURI\r\n    });\r\n    eventList.push(_eventIds);\r\n\r\n    emit EventCreated(_eventIds, name, price, eventURI); //  Fix: Emit correct price\r\n    return _eventIds;\r\n}\r\n\r\n\r\n    function deleteEvent(uint256 eventId) public onlyOwner {\r\n        require(events[eventId].active, \"Event does not exist or is already deleted\");\r\n        events[eventId].active = false;\r\n        \r\n        for (uint256 i = 0; i < eventList.length; i++) {\r\n            if (eventList[i] == eventId) {\r\n                eventList[i] = eventList[eventList.length - 1];\r\n                eventList.pop();\r\n                break;\r\n            }\r\n        }\r\n\r\n        emit EventDeleted(eventId);\r\n    }\r\n\r\n    function showEvents() public view returns (Event[] memory) {\r\n        uint256 activeCount = 0;\r\n        for (uint256 i = 0; i < eventList.length; i++) {\r\n            if (events[eventList[i]].active) {\r\n                activeCount++;\r\n            }\r\n        }\r\n\r\n        Event[] memory activeEvents = new Event[](activeCount);\r\n        uint256 index = 0;\r\n        for (uint256 i = 0; i < eventList.length; i++) {\r\n            if (events[eventList[i]].active) {\r\n                activeEvents[index] = events[eventList[i]];\r\n                index++;\r\n            }\r\n        }\r\n        return activeEvents;\r\n    }\r\n\r\n    function mintTicket(uint256 eventId) public payable returns (uint256) {\r\n        Event storage eventDetails = events[eventId];\r\n        require(eventDetails.active, \"Event does not exist or is not active\");\r\n        require(msg.value >= eventDetails.originalPrice, \"Insufficient payment\");\r\n\r\n        if (msg.value > eventDetails.originalPrice) {\r\n            payable(msg.sender).transfer(msg.value - eventDetails.originalPrice);\r\n        }\r\n        payable(eventDetails.organizer).transfer(eventDetails.originalPrice);\r\n\r\n        _tokenIds.increment();\r\n        uint256 newTokenId = _tokenIds.current();\r\n\r\n        _mint(msg.sender, newTokenId);\r\n        _setTokenURI(newTokenId, eventDetails.eventURI);\r\n\r\n        tickets[newTokenId].eventId = eventId;\r\n        tickets[newTokenId].originalPrice = eventDetails.originalPrice;\r\n        tickets[newTokenId].owners.push(TicketOwner({\r\n            owner: msg.sender,\r\n            price: eventDetails.originalPrice,\r\n            forSale: false\r\n        }));\r\n\r\n        emit TicketMinted(newTokenId, eventId, msg.sender);\r\n        return newTokenId;\r\n    }\r\n\r\n    function listTicket(uint256 tokenId, uint256 price) public {\r\n        Ticket storage ticket = tickets[tokenId];\r\n        for (uint256 i = 0; i < ticket.owners.length; i++) {\r\n            if (ticket.owners[i].owner == msg.sender) {\r\n                require(!ticket.owners[i].forSale, \"Ticket is already listed\");\r\n                require(price <= events[ticket.eventId].maxResalePrice, \"Price exceeds max resale value\");\r\n                \r\n                ticket.owners[i].forSale = true;\r\n                ticket.owners[i].price = price;\r\n                \r\n                bool alreadyListed = false;\r\n                for (uint256 j = 0; j < listedTickets.length; j++) {\r\n                    if (listedTickets[j] == tokenId) {\r\n                        alreadyListed = true;\r\n                        break;\r\n                    }\r\n                }\r\n                if (!alreadyListed) {\r\n                    listedTickets.push(tokenId);\r\n                }\r\n\r\n                emit TicketListed(tokenId, msg.sender, price);\r\n                return;\r\n            }\r\n        }\r\n        revert(\"You do not own this ticket\");\r\n    }\r\n\r\n    function showListedTickets() public view returns (uint256[] memory) {\r\n        return listedTickets;\r\n    }\r\n\r\n    function getTicketOwners(uint256 tokenId) public view returns (TicketOwner[] memory) {\r\n        return tickets[tokenId].owners;\r\n    }\r\n}",
  "sourcePath": "D:\\NFTproject\\contracts\\TicketNFT.sol",
  "compiler": {
    "name": "solc",
    "version": "0.8.17+commit.8df45f5f.Emscripten.clang"
  },
  "schemaVersion": "3.4.16",
  "updatedAt": "2025-04-04T16:35:49.110Z",
  "networkType": "ethereum",
  "devdoc": {
    "kind": "dev",
    "methods": {
      "approve(address,uint256)": {
        "details": "See {IERC721-approve}."
      },
      "balanceOf(address)": {
        "details": "See {IERC721-balanceOf}."
      },
      "getApproved(uint256)": {
        "details": "See {IERC721-getApproved}."
      },
      "isApprovedForAll(address,address)": {
        "details": "See {IERC721-isApprovedForAll}."
      },
      "name()": {
        "details": "See {IERC721Metadata-name}."
      },
      "owner()": {
        "details": "Returns the address of the current owner."
      },
      "ownerOf(uint256)": {
        "details": "See {IERC721-ownerOf}."
      },
      "renounceOwnership()": {
        "details": "Leaves the contract without owner. It will not be possible to call `onlyOwner` functions. Can only be called by the current owner. NOTE: Renouncing ownership will leave the contract without an owner, thereby disabling any functionality that is only available to the owner."
      },
      "safeTransferFrom(address,address,uint256)": {
        "details": "See {IERC721-safeTransferFrom}."
      },
      "safeTransferFrom(address,address,uint256,bytes)": {
        "details": "See {IERC721-safeTransferFrom}."
      },
      "setApprovalForAll(address,bool)": {
        "details": "See {IERC721-setApprovalForAll}."
      },
      "supportsInterface(bytes4)": {
        "details": "See {IERC165-supportsInterface}"
      },
      "symbol()": {
        "details": "See {IERC721Metadata-symbol}."
      },
      "tokenURI(uint256)": {
        "details": "See {IERC721Metadata-tokenURI}."
      },
      "transferFrom(address,address,uint256)": {
        "details": "See {IERC721-transferFrom}."
      },
      "transferOwnership(address)": {
        "details": "Transfers ownership of the contract to a new account (`newOwner`). Can only be called by the current owner."
      }
    },
    "version": 1
  },
  "userdoc": {
    "kind": "user",
    "methods": {},
    "version": 1
  }
}