{
  "contractName": "TicketNFT",
  "abi": [
    {
      "inputs": [],
      "stateMutability": "nonpayable",
      "type": "constructor"
    },
    {
      "anonymous": false,
      "inputs": [
        {
          "indexed": true,
          "internalType": "address",
          "name": "owner",
          "type": "address"
        },
        {
          "indexed": true,
          "internalType": "address",
          "name": "approved",
          "type": "address"
        },
        {
          "indexed": true,
          "internalType": "uint256",
          "name": "tokenId",
          "type": "uint256"
        }
      ],
      "name": "Approval",
      "type": "event"
    },
    {
      "anonymous": false,
      "inputs": [
        {
          "indexed": true,
          "internalType": "address",
          "name": "owner",
          "type": "address"
        },
        {
          "indexed": true,
          "internalType": "address",
          "name": "operator",
          "type": "address"
        },
        {
          "indexed": false,
          "internalType": "bool",
          "name": "approved",
          "type": "bool"
        }
      ],
      "name": "ApprovalForAll",
      "type": "event"
    },
    {
      "anonymous": false,
      "inputs": [
        {
          "indexed": false,
          "internalType": "uint256",
          "name": "_fromTokenId",
          "type": "uint256"
        },
        {
          "indexed": false,
          "internalType": "uint256",
          "name": "_toTokenId",
          "type": "uint256"
        }
      ],
      "name": "BatchMetadataUpdate",
      "type": "event"
    },
    {
      "anonymous": false,
      "inputs": [
        {
          "indexed": false,
          "internalType": "uint256",
          "name": "eventId",
          "type": "uint256"
        },
        {
          "indexed": false,
          "internalType": "string",
          "name": "name",
          "type": "string"
        },
        {
          "indexed": false,
          "internalType": "uint256",
          "name": "price",
          "type": "uint256"
        },
        {
          "indexed": false,
          "internalType": "string",
          "name": "eventURI",
          "type": "string"
        }
      ],
      "name": "EventCreated",
      "type": "event"
    },
    {
      "anonymous": false,
      "inputs": [
        {
          "indexed": false,
          "internalType": "uint256",
          "name": "eventId",
          "type": "uint256"
        }
      ],
      "name": "EventDeleted",
      "type": "event"
    },
    {
      "anonymous": false,
      "inputs": [
        {
          "indexed": false,
          "internalType": "uint256",
          "name": "_tokenId",
          "type": "uint256"
        }
      ],
      "name": "MetadataUpdate",
      "type": "event"
    },
    {
      "anonymous": false,
      "inputs": [
        {
          "indexed": true,
          "internalType": "address",
          "name": "previousOwner",
          "type": "address"
        },
        {
          "indexed": true,
          "internalType": "address",
          "name": "newOwner",
          "type": "address"
        }
      ],
      "name": "OwnershipTransferred",
      "type": "event"
    },
    {
      "anonymous": false,
      "inputs": [
        {
          "indexed": false,
          "internalType": "uint256",
          "name": "tokenId",
          "type": "uint256"
        },
        {
          "indexed": false,
          "internalType": "address",
          "name": "owner",
          "type": "address"
        },
        {
          "indexed": false,
          "internalType": "uint256",
          "name": "price",
          "type": "uint256"
        }
      ],
      "name": "TicketListed",
      "type": "event"
    },
    {
      "anonymous": false,
      "inputs": [
        {
          "indexed": false,
          "internalType": "uint256",
          "name": "tokenId",
          "type": "uint256"
        },
        {
          "indexed": false,
          "internalType": "uint256",
          "name": "eventId",
          "type": "uint256"
        },
        {
          "indexed": false,
          "internalType": "address",
          "name": "owner",
          "type": "address"
        }
      ],
      "name": "TicketMinted",
      "type": "event"
    },
    {
      "anonymous": false,
      "inputs": [
        {
          "indexed": false,
          "internalType": "uint256",
          "name": "tokenId",
          "type": "uint256"
        },
        {
          "indexed": false,
          "internalType": "address",
          "name": "from",
          "type": "address"
        },
        {
          "indexed": false,
          "internalType": "address",
          "name": "to",
          "type": "address"
        },
        {
          "indexed": false,
          "internalType": "uint256",
          "name": "price",
          "type": "uint256"
        }
      ],
      "name": "TicketSold",
      "type": "event"
    },
    {
      "anonymous": false,
      "inputs": [
        {
          "indexed": true,
          "internalType": "address",
          "name": "from",
          "type": "address"
        },
        {
          "indexed": true,
          "internalType": "address",
          "name": "to",
          "type": "address"
        },
        {
          "indexed": true,
          "internalType": "uint256",
          "name": "tokenId",
          "type": "uint256"
        }
      ],
      "name": "Transfer",
      "type": "event"
    },
    {
      "inputs": [
        {
          "internalType": "address",
          "name": "to",
          "type": "address"
        },
        {
          "internalType": "uint256",
          "name": "tokenId",
          "type": "uint256"
        }
      ],
      "name": "approve",
      "outputs": [],
      "stateMutability": "nonpayable",
      "type": "function"
    },
    {
      "inputs": [
        {
          "internalType": "address",
          "name": "owner",
          "type": "address"
        }
      ],
      "name": "balanceOf",
      "outputs": [
        {
          "internalType": "uint256",
          "name": "",
          "type": "uint256"
        }
      ],
      "stateMutability": "view",
      "type": "function",
      "constant": true
    },
    {
      "inputs": [
        {
          "internalType": "uint256",
          "name": "",
          "type": "uint256"
        }
      ],
      "name": "eventList",
      "outputs": [
        {
          "internalType": "uint256",
          "name": "",
          "type": "uint256"
        }
      ],
      "stateMutability": "view",
      "type": "function",
      "constant": true
    },
    {
      "inputs": [
        {
          "internalType": "uint256",
          "name": "",
          "type": "uint256"
        }
      ],
      "name": "events",
      "outputs": [
        {
          "internalType": "string",
          "name": "name",
          "type": "string"
        },
        {
          "internalType": "uint256",
          "name": "originalPrice",
          "type": "uint256"
        },
        {
          "internalType": "uint256",
          "name": "maxResalePrice",
          "type": "uint256"
        },
        {
          "internalType": "uint256",
          "name": "royaltyPercentage",
          "type": "uint256"
        },
        {
          "internalType": "bool",
          "name": "active",
          "type": "bool"
        },
        {
          "internalType": "address",
          "name": "organizer",
          "type": "address"
        },
        {
          "internalType": "string",
          "name": "eventURI",
          "type": "string"
        },
        {
          "internalType": "uint256",
          "name": "eventId",
          "type": "uint256"
        }
      ],
      "stateMutability": "view",
      "type": "function",
      "constant": true
    },
    {
      "inputs": [
        {
          "internalType": "uint256",
          "name": "tokenId",
          "type": "uint256"
        }
      ],
      "name": "getApproved",
      "outputs": [
        {
          "internalType": "address",
          "name": "",
          "type": "address"
        }
      ],
      "stateMutability": "view",
      "type": "function",
      "constant": true
    },
    {
      "inputs": [
        {
          "internalType": "address",
          "name": "owner",
          "type": "address"
        },
        {
          "internalType": "address",
          "name": "operator",
          "type": "address"
        }
      ],
      "name": "isApprovedForAll",
      "outputs": [
        {
          "internalType": "bool",
          "name": "",
          "type": "bool"
        }
      ],
      "stateMutability": "view",
      "type": "function",
      "constant": true
    },
    {
      "inputs": [
        {
          "internalType": "uint256",
          "name": "",
          "type": "uint256"
        }
      ],
      "name": "listedTickets",
      "outputs": [
        {
          "internalType": "uint256",
          "name": "",
          "type": "uint256"
        }
      ],
      "stateMutability": "view",
      "type": "function",
      "constant": true
    },
    {
      "inputs": [],
      "name": "name",
      "outputs": [
        {
          "internalType": "string",
          "name": "",
          "type": "string"
        }
      ],
      "stateMutability": "view",
      "type": "function",
      "constant": true
    },
    {
      "inputs": [],
      "name": "owner",
      "outputs": [
        {
          "internalType": "address",
          "name": "",
          "type": "address"
        }
      ],
      "stateMutability": "view",
      "type": "function",
      "constant": true
    },
    {
      "inputs": [
        {
          "internalType": "uint256",
          "name": "tokenId",
          "type": "uint256"
        }
      ],
      "name": "ownerOf",
      "outputs": [
        {
          "internalType": "address",
          "name": "",
          "type": "address"
        }
      ],
      "stateMutability": "view",
      "type": "function",
      "constant": true
    },
    {
      "inputs": [],
      "name": "renounceOwnership",
      "outputs": [],
      "stateMutability": "nonpayable",
      "type": "function"
    },
    {
      "inputs": [
        {
          "internalType": "address",
          "name": "from",
          "type": "address"
        },
        {
          "internalType": "address",
          "name": "to",
          "type": "address"
        },
        {
          "internalType": "uint256",
          "name": "tokenId",
          "type": "uint256"
        }
      ],
      "name": "safeTransferFrom",
      "outputs": [],
      "stateMutability": "nonpayable",
      "type": "function"
    },
    {
      "inputs": [
        {
          "internalType": "address",
          "name": "from",
          "type": "address"
        },
        {
          "internalType": "address",
          "name": "to",
          "type": "address"
        },
        {
          "internalType": "uint256",
          "name": "tokenId",
          "type": "uint256"
        },
        {
          "internalType": "bytes",
          "name": "data",
          "type": "bytes"
        }
      ],
      "name": "safeTransferFrom",
      "outputs": [],
      "stateMutability": "nonpayable",
      "type": "function"
    },
    {
      "inputs": [
        {
          "internalType": "address",
          "name": "operator",
          "type": "address"
        },
        {
          "internalType": "bool",
          "name": "approved",
          "type": "bool"
        }
      ],
      "name": "setApprovalForAll",
      "outputs": [],
      "stateMutability": "nonpayable",
      "type": "function"
    },
    {
      "inputs": [
        {
          "internalType": "bytes4",
          "name": "interfaceId",
          "type": "bytes4"
        }
      ],
      "name": "supportsInterface",
      "outputs": [
        {
          "internalType": "bool",
          "name": "",
          "type": "bool"
        }
      ],
      "stateMutability": "view",
      "type": "function",
      "constant": true
    },
    {
      "inputs": [],
      "name": "symbol",
      "outputs": [
        {
          "internalType": "string",
          "name": "",
          "type": "string"
        }
      ],
      "stateMutability": "view",
      "type": "function",
      "constant": true
    },
    {
      "inputs": [
        {
          "internalType": "uint256",
          "name": "",
          "type": "uint256"
        }
      ],
      "name": "tickets",
      "outputs": [
        {
          "internalType": "uint256",
          "name": "tokenId",
          "type": "uint256"
        },
        {
          "internalType": "uint256",
          "name": "eventId",
          "type": "uint256"
        },
        {
          "internalType": "uint256",
          "name": "originalPrice",
          "type": "uint256"
        }
      ],
      "stateMutability": "view",
      "type": "function",
      "constant": true
    },
    {
      "inputs": [
        {
          "internalType": "uint256",
          "name": "tokenId",
          "type": "uint256"
        }
      ],
      "name": "tokenURI",
      "outputs": [
        {
          "internalType": "string",
          "name": "",
          "type": "string"
        }
      ],
      "stateMutability": "view",
      "type": "function",
      "constant": true
    },
    {
      "inputs": [
        {
          "internalType": "address",
          "name": "from",
          "type": "address"
        },
        {
          "internalType": "address",
          "name": "to",
          "type": "address"
        },
        {
          "internalType": "uint256",
          "name": "tokenId",
          "type": "uint256"
        }
      ],
      "name": "transferFrom",
      "outputs": [],
      "stateMutability": "nonpayable",
      "type": "function"
    },
    {
      "inputs": [
        {
          "internalType": "address",
          "name": "newOwner",
          "type": "address"
        }
      ],
      "name": "transferOwnership",
      "outputs": [],
      "stateMutability": "nonpayable",
      "type": "function"
    },
    {
      "inputs": [
        {
          "internalType": "string",
          "name": "name",
          "type": "string"
        },
        {
          "internalType": "uint256",
          "name": "price",
          "type": "uint256"
        },
        {
          "internalType": "uint256",
          "name": "maxResalePrice",
          "type": "uint256"
        },
        {
          "internalType": "uint256",
          "name": "royaltyPercentage",
          "type": "uint256"
        },
        {
          "internalType": "string",
          "name": "eventURI",
          "type": "string"
        }
      ],
      "name": "createEvent",
      "outputs": [
        {
          "internalType": "uint256",
          "name": "",
          "type": "uint256"
        }
      ],
      "stateMutability": "nonpayable",
      "type": "function"
    },
    {
      "inputs": [
        {
          "internalType": "uint256",
          "name": "eventId",
          "type": "uint256"
        }
      ],
      "name": "deleteEvent",
      "outputs": [],
      "stateMutability": "nonpayable",
      "type": "function"
    },
    {
      "inputs": [
        {
          "internalType": "uint256",
          "name": "tokenId",
          "type": "uint256"
        }
      ],
      "name": "getEventForTicket",
      "outputs": [
        {
          "components": [
            {
              "internalType": "string",
              "name": "name",
              "type": "string"
            },
            {
              "internalType": "uint256",
              "name": "originalPrice",
              "type": "uint256"
            },
            {
              "internalType": "uint256",
              "name": "maxResalePrice",
              "type": "uint256"
            },
            {
              "internalType": "uint256",
              "name": "royaltyPercentage",
              "type": "uint256"
            },
            {
              "internalType": "bool",
              "name": "active",
              "type": "bool"
            },
            {
              "internalType": "address",
              "name": "organizer",
              "type": "address"
            },
            {
              "internalType": "string",
              "name": "eventURI",
              "type": "string"
            },
            {
              "internalType": "uint256",
              "name": "eventId",
              "type": "uint256"
            }
          ],
          "internalType": "struct TicketNFT.Event",
          "name": "",
          "type": "tuple"
        }
      ],
      "stateMutability": "view",
      "type": "function",
      "constant": true
    },
    {
      "inputs": [],
      "name": "showEvents",
      "outputs": [
        {
          "components": [
            {
              "internalType": "string",
              "name": "name",
              "type": "string"
            },
            {
              "internalType": "uint256",
              "name": "originalPrice",
              "type": "uint256"
            },
            {
              "internalType": "uint256",
              "name": "maxResalePrice",
              "type": "uint256"
            },
            {
              "internalType": "uint256",
              "name": "royaltyPercentage",
              "type": "uint256"
            },
            {
              "internalType": "bool",
              "name": "active",
              "type": "bool"
            },
            {
              "internalType": "address",
              "name": "organizer",
              "type": "address"
            },
            {
              "internalType": "string",
              "name": "eventURI",
              "type": "string"
            },
            {
              "internalType": "uint256",
              "name": "eventId",
              "type": "uint256"
            }
          ],
          "internalType": "struct TicketNFT.Event[]",
          "name": "",
          "type": "tuple[]"
        }
      ],
      "stateMutability": "view",
      "type": "function",
      "constant": true
    },
    {
      "inputs": [],
      "name": "getEventList",
      "outputs": [
        {
          "internalType": "uint256[]",
          "name": "",
          "type": "uint256[]"
        }
      ],
      "stateMutability": "view",
      "type": "function",
      "constant": true
    },
    {
      "inputs": [
        {
          "internalType": "uint256",
          "name": "eventId",
          "type": "uint256"
        }
      ],
      "name": "mintTicket",
      "outputs": [
        {
          "internalType": "uint256",
          "name": "",
          "type": "uint256"
        }
      ],
      "stateMutability": "payable",
      "type": "function",
      "payable": true
    },
    {
      "inputs": [
        {
          "internalType": "uint256",
          "name": "tokenId",
          "type": "uint256"
        },
        {
          "internalType": "uint256",
          "name": "price",
          "type": "uint256"
        }
      ],
      "name": "listTicket",
      "outputs": [],
      "stateMutability": "nonpayable",
      "type": "function"
    },
    {
      "inputs": [
        {
          "internalType": "uint256",
          "name": "tokenId",
          "type": "uint256"
        }
      ],
      "name": "buyTicket",
      "outputs": [],
      "stateMutability": "payable",
      "type": "function",
      "payable": true
    },
    {
      "inputs": [],
      "name": "showListedTickets",
      "outputs": [
        {
          "internalType": "uint256[]",
          "name": "",
          "type": "uint256[]"
        }
      ],
      "stateMutability": "view",
      "type": "function",
      "constant": true
    },
    {
      "inputs": [
        {
          "internalType": "uint256",
          "name": "tokenId",
          "type": "uint256"
        }
      ],
      "name": "getTicketOwners",
      "outputs": [
        {
          "components": [
            {
              "internalType": "address",
              "name": "owner",
              "type": "address"
            },
            {
              "internalType": "uint256",
              "name": "price",
              "type": "uint256"
            },
            {
              "internalType": "bool",
              "name": "forSale",
              "type": "bool"
            }
          ],
          "internalType": "struct TicketNFT.TicketOwner[]",
          "name": "",
          "type": "tuple[]"
        }
      ],
      "stateMutability": "view",
      "type": "function",
      "constant": true
    },
    {
      "inputs": [
        {
          "internalType": "address",
          "name": "user",
          "type": "address"
        }
      ],
      "name": "getOwnedTickets",
      "outputs": [
        {
          "internalType": "uint256[]",
          "name": "",
          "type": "uint256[]"
        }
      ],
      "stateMutability": "view",
      "type": "function",
      "constant": true
    }
  ],
  "bytecode": "0x60806040523480156200001157600080fd5b506040518060400160405280600c81526020017f4576656e74205469636b657400000000000000000000000000000000000000008152506040518060400160405280600481526020017f54494b540000000000000000000000000000000000000000000000000000000081525081600090816200008f919062000412565b508060019081620000a1919062000412565b505050620000c4620000b8620000ca60201b60201c565b620000d260201b60201c565b620004f9565b600033905090565b6000600760009054906101000a900473ffffffffffffffffffffffffffffffffffffffff16905081600760006101000a81548173ffffffffffffffffffffffffffffffffffffffff021916908373ffffffffffffffffffffffffffffffffffffffff1602179055508173ffffffffffffffffffffffffffffffffffffffff168173ffffffffffffffffffffffffffffffffffffffff167f8be0079c531659141344cd1fd0a4f28419497f9722a3daafe3b4186f6b6457e060405160405180910390a35050565b600081519050919050565b7f4e487b7100000000000000000000000000000000000000000000000000000000600052604160045260246000fd5b7f4e487b7100000000000000000000000000000000000000000000000000000000600052602260045260246000fd5b600060028204905060018216806200021a57607f821691505b60208210810362000230576200022f620001d2565b5b50919050565b60008190508160005260206000209050919050565b60006020601f8301049050919050565b600082821b905092915050565b6000600883026200029a7fffffffffffffffffffffffffffffffffffffffffffffffffffffffffffffffff826200025b565b620002a686836200025b565b95508019841693508086168417925050509392505050565b6000819050919050565b6000819050919050565b6000620002f3620002ed620002e784620002be565b620002c8565b620002be565b9050919050565b6000819050919050565b6200030f83620002d2565b620003276200031e82620002fa565b84845462000268565b825550505050565b600090565b6200033e6200032f565b6200034b81848462000304565b505050565b5b8181101562000373576200036760008262000334565b60018101905062000351565b5050565b601f821115620003c2576200038c8162000236565b62000397846200024b565b81016020851015620003a7578190505b620003bf620003b6856200024b565b83018262000350565b50505b505050565b600082821c905092915050565b6000620003e760001984600802620003c7565b1980831691505092915050565b6000620004028383620003d4565b9150826002028217905092915050565b6200041d8262000198565b67ffffffffffffffff811115620004395762000438620001a3565b5b62000445825462000201565b6200045282828562000377565b600060209050601f8311600181146200048a576000841562000475578287015190505b620004818582620003f4565b865550620004f1565b601f1984166200049a8662000236565b60005b82811015620004c4578489015182556001820191506020850194506020810190506200049d565b86831015620004e45784890151620004e0601f891682620003d4565b8355505b6001600288020188555050505b505050505050565b61597d80620005096000396000f3fe6080604052600436106101d85760003560e01c806350b447121161010257806395d89b4111610095578063e6ba269011610064578063e6ba26901461071d578063e985e9c51461075a578063f2fde38b14610797578063f8749a58146107c0576101d8565b806395d89b4114610663578063a22cb4651461068e578063b88d4fde146106b7578063c87b56dd146106e0576101d8565b806367dd74ca116100d157806367dd74ca146105c857806370a08231146105e4578063715018a6146106215780638da5cb5b14610638576101d8565b806350b44712146104d25780636125401b146105115780636218ebaa1461054e5780636352211e1461058b576101d8565b806323b872dd1161017a57806342842e0e1161014957806342842e0e146104045780634527746f1461042d578063493280d21461046a5780634cac3150146104a7576101d8565b806323b872dd14610345578063256d52f61461036e578063305a905a1461039e57806336a65e80146103c7576101d8565b8063095ea7b3116101b6578063095ea7b3146102825780630b791430146102ab57806313293b40146102ef5780631db069491461031a576101d8565b806301ffc9a7146101dd57806306fdde031461021a578063081812fc14610245575b600080fd5b3480156101e957600080fd5b5061020460048036038101906101ff9190613aab565b6107e9565b6040516102119190613af3565b60405180910390f35b34801561022657600080fd5b5061022f61084a565b60405161023c9190613b9e565b60405180910390f35b34801561025157600080fd5b5061026c60048036038101906102679190613bf6565b6108dc565b6040516102799190613c64565b60405180910390f35b34801561028e57600080fd5b506102a960048036038101906102a49190613cab565b610922565b005b3480156102b757600080fd5b506102d260048036038101906102cd9190613bf6565b610a39565b6040516102e6989796959493929190613cfa565b60405180910390f35b3480156102fb57600080fd5b50610304610bbe565b6040516103119190613f76565b60405180910390f35b34801561032657600080fd5b5061032f610e61565b60405161033c9190614047565b60405180910390f35b34801561035157600080fd5b5061036c60048036038101906103679190614069565b610eb9565b005b61038860048036038101906103839190613bf6565b610f19565b60405161039591906140bc565b60405180910390f35b3480156103aa57600080fd5b506103c560048036038101906103c091906140d7565b6112d7565b005b3480156103d357600080fd5b506103ee60048036038101906103e99190613bf6565b6115bd565b6040516103fb9190614208565b60405180910390f35b34801561041057600080fd5b5061042b60048036038101906104269190614069565b6116ad565b005b34801561043957600080fd5b50610454600480360381019061044f919061422a565b6116cd565b6040516104619190614047565b60405180910390f35b34801561047657600080fd5b50610491600480360381019061048c9190613bf6565b61192c565b60405161049e91906140bc565b60405180910390f35b3480156104b357600080fd5b506104bc611950565b6040516104c99190614047565b60405180910390f35b3480156104de57600080fd5b506104f960048036038101906104f49190613bf6565b6119a8565b60405161050893929190614257565b60405180910390f35b34801561051d57600080fd5b5061053860048036038101906105339190613bf6565b6119d2565b60405161054591906140bc565b60405180910390f35b34801561055a57600080fd5b5061057560048036038101906105709190613bf6565b6119f6565b6040516105829190614345565b60405180910390f35b34801561059757600080fd5b506105b260048036038101906105ad9190613bf6565b611c56565b6040516105bf9190613c64565b60405180910390f35b6105e260048036038101906105dd9190613bf6565b611cdc565b005b3480156105f057600080fd5b5061060b6004803603810190610606919061422a565b61217e565b60405161061891906140bc565b60405180910390f35b34801561062d57600080fd5b50610636612235565b005b34801561064457600080fd5b5061064d612249565b60405161065a9190613c64565b60405180910390f35b34801561066f57600080fd5b50610678612273565b6040516106859190613b9e565b60405180910390f35b34801561069a57600080fd5b506106b560048036038101906106b09190614393565b612305565b005b3480156106c357600080fd5b506106de60048036038101906106d99190614508565b61231b565b005b3480156106ec57600080fd5b5061070760048036038101906107029190613bf6565b61237d565b6040516107149190613b9e565b60405180910390f35b34801561072957600080fd5b50610744600480360381019061073f919061462c565b61248f565b60405161075191906140bc565b60405180910390f35b34801561076657600080fd5b50610781600480360381019061077c91906146df565b61268d565b60405161078e9190613af3565b60405180910390f35b3480156107a357600080fd5b506107be60048036038101906107b9919061422a565b612721565b005b3480156107cc57600080fd5b506107e760048036038101906107e29190613bf6565b6127a4565b005b6000634906490660e01b7bffffffffffffffffffffffffffffffffffffffffffffffffffffffff1916827bffffffffffffffffffffffffffffffffffffffffffffffffffffffff191614806108435750610842826128da565b5b9050919050565b6060600080546108599061474e565b80601f01602080910402602001604051908101604052809291908181526020018280546108859061474e565b80156108d25780601f106108a7576101008083540402835291602001916108d2565b820191906000526020600020905b8154815290600101906020018083116108b557829003601f168201915b5050505050905090565b60006108e7826129bc565b6004600083815260200190815260200160002060009054906101000a900473ffffffffffffffffffffffffffffffffffffffff169050919050565b600061092d82611c56565b90508073ffffffffffffffffffffffffffffffffffffffff168373ffffffffffffffffffffffffffffffffffffffff160361099d576040517f08c379a0000000000000000000000000000000000000000000000000000000008152600401610994906147f1565b60405180910390fd5b8073ffffffffffffffffffffffffffffffffffffffff166109bc612a07565b73ffffffffffffffffffffffffffffffffffffffff1614806109eb57506109ea816109e5612a07565b61268d565b5b610a2a576040517f08c379a0000000000000000000000000000000000000000000000000000000008152600401610a2190614883565b60405180910390fd5b610a348383612a0f565b505050565b600a602052806000526040600020600091509050806000018054610a5c9061474e565b80601f0160208091040260200160405190810160405280929190818152602001828054610a889061474e565b8015610ad55780601f10610aaa57610100808354040283529160200191610ad5565b820191906000526020600020905b815481529060010190602001808311610ab857829003601f168201915b5050505050908060010154908060020154908060030154908060040160009054906101000a900460ff16908060040160019054906101000a900473ffffffffffffffffffffffffffffffffffffffff1690806005018054610b359061474e565b80601f0160208091040260200160405190810160405280929190818152602001828054610b619061474e565b8015610bae5780601f10610b8357610100808354040283529160200191610bae565b820191906000526020600020905b815481529060010190602001808311610b9157829003601f168201915b5050505050908060060154905088565b60606000600c80549050905060008167ffffffffffffffff811115610be657610be56143dd565b5b604051908082528060200260200182016040528015610c1f57816020015b610c0c613985565b815260200190600190039081610c045790505b50905060005b82811015610e5857600a6000600c8381548110610c4557610c446148a3565b5b9060005260206000200154815260200190815260200160002060405180610100016040529081600082018054610c7a9061474e565b80601f0160208091040260200160405190810160405280929190818152602001828054610ca69061474e565b8015610cf35780601f10610cc857610100808354040283529160200191610cf3565b820191906000526020600020905b815481529060010190602001808311610cd657829003601f168201915b505050505081526020016001820154815260200160028201548152602001600382015481526020016004820160009054906101000a900460ff161515151581526020016004820160019054906101000a900473ffffffffffffffffffffffffffffffffffffffff1673ffffffffffffffffffffffffffffffffffffffff1673ffffffffffffffffffffffffffffffffffffffff168152602001600582018054610d9b9061474e565b80601f0160208091040260200160405190810160405280929190818152602001828054610dc79061474e565b8015610e145780601f10610de957610100808354040283529160200191610e14565b820191906000526020600020905b815481529060010190602001808311610df757829003601f168201915b50505050508152602001600682015481525050828281518110610e3a57610e396148a3565b5b60200260200101819052508080610e5090614901565b915050610c25565b50809250505090565b6060600c805480602002602001604051908101604052809291908181526020018280548015610eaf57602002820191906000526020600020905b815481526020019060010190808311610e9b575b5050505050905090565b610eca610ec4612a07565b82612ac8565b610f09576040517f08c379a0000000000000000000000000000000000000000000000000000000008152600401610f00906149bb565b60405180910390fd5b610f14838383612b5d565b505050565b600080600a600084815260200190815260200160002090508060040160009054906101000a900460ff16610f82576040517f08c379a0000000000000000000000000000000000000000000000000000000008152600401610f7990614a4d565b60405180910390fd5b8060010154341015610fc9576040517f08c379a0000000000000000000000000000000000000000000000000000000008152600401610fc090614ab9565b60405180910390fd5b806001015434111561102c573373ffffffffffffffffffffffffffffffffffffffff166108fc826001015434610fff9190614ad9565b9081150290604051600060405180830381858888f1935050505015801561102a573d6000803e3d6000fd5b505b8060040160019054906101000a900473ffffffffffffffffffffffffffffffffffffffff1673ffffffffffffffffffffffffffffffffffffffff166108fc82600101549081150290604051600060405180830381858888f1935050505015801561109a573d6000803e3d6000fd5b506110a56008612e56565b60006110b16008612e6c565b90506110bd3382612e7a565b611153818360050180546110d09061474e565b80601f01602080910402602001604051908101604052809291908181526020018280546110fc9061474e565b80156111495780601f1061111e57610100808354040283529160200191611149565b820191906000526020600020905b81548152906001019060200180831161112c57829003601f168201915b5050505050613097565b80600b60008381526020019081526020016000206000018190555083600b6000838152602001908152602001600020600101819055508160010154600b600083815260200190815260200160002060020181905550600b600082815260200190815260200160002060030160405180606001604052803373ffffffffffffffffffffffffffffffffffffffff1681526020018460010154815260200160001515815250908060018154018082558091505060019003906000526020600020906003020160009091909190915060008201518160000160006101000a81548173ffffffffffffffffffffffffffffffffffffffff021916908373ffffffffffffffffffffffffffffffffffffffff1602179055506020820151816001015560408201518160020160006101000a81548160ff02191690831515021790555050507f085ec0eff4bf526b0dd054adffcd8bd8da42126a1133ce302042973f32029fb08185336040516112c593929190614b0d565b60405180910390a18092505050919050565b6000600b600084815260200190815260200160002090506000816000015403611335576040517f08c379a000000000000000000000000000000000000000000000000000000000815260040161132c90614b90565b60405180910390fd5b60005b816003018054905081101561157d573373ffffffffffffffffffffffffffffffffffffffff16826003018281548110611374576113736148a3565b5b906000526020600020906003020160000160009054906101000a900473ffffffffffffffffffffffffffffffffffffffff1673ffffffffffffffffffffffffffffffffffffffff160361156a578160030181815481106113d7576113d66148a3565b5b906000526020600020906003020160020160009054906101000a900460ff1615611436576040517f08c379a000000000000000000000000000000000000000000000000000000000815260040161142d90614bfc565b60405180910390fd5b600a60008360010154815260200190815260200160002060020154831115611493576040517f08c379a000000000000000000000000000000000000000000000000000000000815260040161148a90614c68565b60405180910390fd5b60018260030182815481106114ab576114aa6148a3565b5b906000526020600020906003020160020160006101000a81548160ff021916908315150217905550828260030182815481106114ea576114e96148a3565b5b906000526020600020906003020160010181905550600d8490806001815401808255809150506001900390600052602060002001600090919091909150557f22968ec3be3687b180f3544163a034b88d57b48159d9a7e9a1b610fdb2d05f8084338560405161155b93929190614c88565b60405180910390a150506115b9565b808061157590614901565b915050611338565b506040517f08c379a00000000000000000000000000000000000000000000000000000000081526004016115b090614d0b565b60405180910390fd5b5050565b6060600b6000838152602001908152602001600020600301805480602002602001604051908101604052809291908181526020016000905b828210156116a257838290600052602060002090600302016040518060600160405290816000820160009054906101000a900473ffffffffffffffffffffffffffffffffffffffff1673ffffffffffffffffffffffffffffffffffffffff1673ffffffffffffffffffffffffffffffffffffffff168152602001600182015481526020016002820160009054906101000a900460ff161515151581525050815260200190600101906115f5565b505050509050919050565b6116c88383836040518060200160405280600081525061231b565b505050565b606060006116db6008612e6c565b9050600080600190505b8281116117c7576000600b600083815260200190815260200160002090506000816003018054905011801561179f57508573ffffffffffffffffffffffffffffffffffffffff1681600301600183600301805490506117449190614ad9565b81548110611755576117546148a3565b5b906000526020600020906003020160000160009054906101000a900473ffffffffffffffffffffffffffffffffffffffff1673ffffffffffffffffffffffffffffffffffffffff16145b156117b35782806117af90614901565b9350505b5080806117bf90614901565b9150506116e5565b5060008167ffffffffffffffff8111156117e4576117e36143dd565b5b6040519080825280602002602001820160405280156118125781602001602082028036833780820191505090505b509050600080600190505b84811161191f576000600b60008381526020019081526020016000209050600081600301805490501180156118d757508773ffffffffffffffffffffffffffffffffffffffff16816003016001836003018054905061187c9190614ad9565b8154811061188d5761188c6148a3565b5b906000526020600020906003020160000160009054906101000a900473ffffffffffffffffffffffffffffffffffffffff1673ffffffffffffffffffffffffffffffffffffffff16145b1561190b57818484815181106118f0576118ef6148a3565b5b602002602001018181525050828061190790614901565b9350505b50808061191790614901565b91505061181d565b5081945050505050919050565b600c818154811061193c57600080fd5b906000526020600020016000915090505481565b6060600d80548060200260200160405190810160405280929190818152602001828054801561199e57602002820191906000526020600020905b81548152602001906001019080831161198a575b5050505050905090565b600b6020528060005260406000206000915090508060000154908060010154908060020154905083565b600d81815481106119e257600080fd5b906000526020600020016000915090505481565b6119fe613985565b6000600b60008481526020019081526020016000206000015403611a57576040517f08c379a0000000000000000000000000000000000000000000000000000000008152600401611a4e90614b90565b60405180910390fd5b6000600b6000848152602001908152602001600020600101549050600a600082815260200190815260200160002060405180610100016040529081600082018054611aa19061474e565b80601f0160208091040260200160405190810160405280929190818152602001828054611acd9061474e565b8015611b1a5780601f10611aef57610100808354040283529160200191611b1a565b820191906000526020600020905b815481529060010190602001808311611afd57829003601f168201915b505050505081526020016001820154815260200160028201548152602001600382015481526020016004820160009054906101000a900460ff161515151581526020016004820160019054906101000a900473ffffffffffffffffffffffffffffffffffffffff1673ffffffffffffffffffffffffffffffffffffffff1673ffffffffffffffffffffffffffffffffffffffff168152602001600582018054611bc29061474e565b80601f0160208091040260200160405190810160405280929190818152602001828054611bee9061474e565b8015611c3b5780601f10611c1057610100808354040283529160200191611c3b565b820191906000526020600020905b815481529060010190602001808311611c1e57829003601f168201915b50505050508152602001600682015481525050915050919050565b600080611c628361313b565b9050600073ffffffffffffffffffffffffffffffffffffffff168173ffffffffffffffffffffffffffffffffffffffff1603611cd3576040517f08c379a0000000000000000000000000000000000000000000000000000000008152600401611cca90614d77565b60405180910390fd5b80915050919050565b6000600b600083815260200190815260200160002090506000816000015403611d3a576040517f08c379a0000000000000000000000000000000000000000000000000000000008152600401611d3190614b90565b60405180910390fd5b60005b816003018054905081101561213f57816003018181548110611d6257611d616148a3565b5b906000526020600020906003020160020160009054906101000a900460ff161561212c57816003018181548110611d9c57611d9b6148a3565b5b906000526020600020906003020160010154341015611df0576040517f08c379a0000000000000000000000000000000000000000000000000000000008152600401611de790614ab9565b60405180910390fd5b6000826003018281548110611e0857611e076148a3565b5b906000526020600020906003020160000160009054906101000a900473ffffffffffffffffffffffffffffffffffffffff1690506000836003018381548110611e5457611e536148a3565b5b906000526020600020906003020160010154905060006064600a6000876001015481526020019081526020016000206003015483611e929190614d97565b611e9c9190614e08565b905060008183611eac9190614ad9565b9050600a60008760010154815260200190815260200160002060040160019054906101000a900473ffffffffffffffffffffffffffffffffffffffff1673ffffffffffffffffffffffffffffffffffffffff166108fc839081150290604051600060405180830381858888f19350505050158015611f2e573d6000803e3d6000fd5b508373ffffffffffffffffffffffffffffffffffffffff166108fc829081150290604051600060405180830381858888f19350505050158015611f75573d6000803e3d6000fd5b5033866003018681548110611f8d57611f8c6148a3565b5b906000526020600020906003020160000160006101000a81548173ffffffffffffffffffffffffffffffffffffffff021916908373ffffffffffffffffffffffffffffffffffffffff1602179055506000866003018681548110611ff457611ff36148a3565b5b906000526020600020906003020160020160006101000a81548160ff02191690831515021790555060005b600d805490508110156120e35787600d8281548110612041576120406148a3565b5b9060005260206000200154036120d057600d6001600d805490506120659190614ad9565b81548110612076576120756148a3565b5b9060005260206000200154600d8281548110612095576120946148a3565b5b9060005260206000200181905550600d8054806120b5576120b4614e39565b5b600190038181906000526020600020016000905590556120e3565b80806120db90614901565b91505061201f565b507f2bbc64d6afd28a753f6c5e4aaa894f1d684c44a0e080167eae104ac8505cfebd878533866040516121199493929190614e68565b60405180910390a150505050505061217b565b808061213790614901565b915050611d3d565b506040517f08c379a000000000000000000000000000000000000000000000000000000000815260040161217290614ef9565b60405180910390fd5b50565b60008073ffffffffffffffffffffffffffffffffffffffff168273ffffffffffffffffffffffffffffffffffffffff16036121ee576040517f08c379a00000000000000000000000000000000000000000000000000000000081526004016121e590614f8b565b60405180910390fd5b600360008373ffffffffffffffffffffffffffffffffffffffff1673ffffffffffffffffffffffffffffffffffffffff168152602001908152602001600020549050919050565b61223d613178565b61224760006131f6565b565b6000600760009054906101000a900473ffffffffffffffffffffffffffffffffffffffff16905090565b6060600180546122829061474e565b80601f01602080910402602001604051908101604052809291908181526020018280546122ae9061474e565b80156122fb5780601f106122d0576101008083540402835291602001916122fb565b820191906000526020600020905b8154815290600101906020018083116122de57829003601f168201915b5050505050905090565b612317612310612a07565b83836132bc565b5050565b61232c612326612a07565b83612ac8565b61236b576040517f08c379a0000000000000000000000000000000000000000000000000000000008152600401612362906149bb565b60405180910390fd5b61237784848484613428565b50505050565b6060612388826129bc565b60006006600084815260200190815260200160002080546123a89061474e565b80601f01602080910402602001604051908101604052809291908181526020018280546123d49061474e565b80156124215780601f106123f657610100808354040283529160200191612421565b820191906000526020600020905b81548152906001019060200180831161240457829003601f168201915b505050505090506000612432613484565b9050600081510361244757819250505061248a565b60008251111561247c578082604051602001612464929190614fe7565b6040516020818303038152906040529250505061248a565b6124858461349b565b925050505b919050565b600060198311156124d5576040517f08c379a00000000000000000000000000000000000000000000000000000000081526004016124cc90615057565b60405180910390fd5b600960008154809291906124e890614901565b91905055506040518061010001604052808781526020018681526020018581526020018481526020016001151581526020013373ffffffffffffffffffffffffffffffffffffffff168152602001838152602001600954815250600a60006009548152602001908152602001600020600082015181600001908161256c9190615223565b5060208201518160010155604082015181600201556060820151816003015560808201518160040160006101000a81548160ff02191690831515021790555060a08201518160040160016101000a81548173ffffffffffffffffffffffffffffffffffffffff021916908373ffffffffffffffffffffffffffffffffffffffff16021790555060c08201518160050190816126079190615223565b5060e08201518160060155905050600c60095490806001815401808255809150506001900390600052602060002001600090919091909150557f2f46aa03f444b4d078142c9e6c82942e92866f5b8992a3612b4a1762188c968260095487878560405161267794939291906152f5565b60405180910390a1600954905095945050505050565b6000600560008473ffffffffffffffffffffffffffffffffffffffff1673ffffffffffffffffffffffffffffffffffffffff16815260200190815260200160002060008373ffffffffffffffffffffffffffffffffffffffff1673ffffffffffffffffffffffffffffffffffffffff16815260200190815260200160002060009054906101000a900460ff16905092915050565b612729613178565b600073ffffffffffffffffffffffffffffffffffffffff168173ffffffffffffffffffffffffffffffffffffffff1603612798576040517f08c379a000000000000000000000000000000000000000000000000000000000815260040161278f906153ba565b60405180910390fd5b6127a1816131f6565b50565b6127ac613178565b600a600082815260200190815260200160002060040160009054906101000a900460ff1661280f576040517f08c379a00000000000000000000000000000000000000000000000000000000081526004016128069061544c565b60405180910390fd5b600a60008281526020019081526020016000206000808201600061283391906139e2565b6001820160009055600282016000905560038201600090556004820160006101000a81549060ff02191690556004820160016101000a81549073ffffffffffffffffffffffffffffffffffffffff021916905560058201600061289691906139e2565b600682016000905550507f24089da2b94d456671c6e08e154081718367fe1b3eb2bf048f9ded0b2ce2270a816040516128cf91906140bc565b60405180910390a150565b60007f80ac58cd000000000000000000000000000000000000000000000000000000007bffffffffffffffffffffffffffffffffffffffffffffffffffffffff1916827bffffffffffffffffffffffffffffffffffffffffffffffffffffffff191614806129a557507f5b5e139f000000000000000000000000000000000000000000000000000000007bffffffffffffffffffffffffffffffffffffffffffffffffffffffff1916827bffffffffffffffffffffffffffffffffffffffffffffffffffffffff1916145b806129b557506129b482613503565b5b9050919050565b6129c58161356d565b612a04576040517f08c379a00000000000000000000000000000000000000000000000000000000081526004016129fb90614d77565b60405180910390fd5b50565b600033905090565b816004600083815260200190815260200160002060006101000a81548173ffffffffffffffffffffffffffffffffffffffff021916908373ffffffffffffffffffffffffffffffffffffffff160217905550808273ffffffffffffffffffffffffffffffffffffffff16612a8283611c56565b73ffffffffffffffffffffffffffffffffffffffff167f8c5be1e5ebec7d5bd14f71427d1e84f3dd0314c0f7b2291e5b200ac8c7c3b92560405160405180910390a45050565b600080612ad483611c56565b90508073ffffffffffffffffffffffffffffffffffffffff168473ffffffffffffffffffffffffffffffffffffffff161480612b165750612b15818561268d565b5b80612b5457508373ffffffffffffffffffffffffffffffffffffffff16612b3c846108dc565b73ffffffffffffffffffffffffffffffffffffffff16145b91505092915050565b8273ffffffffffffffffffffffffffffffffffffffff16612b7d82611c56565b73ffffffffffffffffffffffffffffffffffffffff1614612bd3576040517f08c379a0000000000000000000000000000000000000000000000000000000008152600401612bca906154de565b60405180910390fd5b600073ffffffffffffffffffffffffffffffffffffffff168273ffffffffffffffffffffffffffffffffffffffff1603612c42576040517f08c379a0000000000000000000000000000000000000000000000000000000008152600401612c3990615570565b60405180910390fd5b612c4f83838360016135ae565b8273ffffffffffffffffffffffffffffffffffffffff16612c6f82611c56565b73ffffffffffffffffffffffffffffffffffffffff1614612cc5576040517f08c379a0000000000000000000000000000000000000000000000000000000008152600401612cbc906154de565b60405180910390fd5b6004600082815260200190815260200160002060006101000a81549073ffffffffffffffffffffffffffffffffffffffff02191690556001600360008573ffffffffffffffffffffffffffffffffffffffff1673ffffffffffffffffffffffffffffffffffffffff168152602001908152602001600020600082825403925050819055506001600360008473ffffffffffffffffffffffffffffffffffffffff1673ffffffffffffffffffffffffffffffffffffffff16815260200190815260200160002060008282540192505081905550816002600083815260200190815260200160002060006101000a81548173ffffffffffffffffffffffffffffffffffffffff021916908373ffffffffffffffffffffffffffffffffffffffff160217905550808273ffffffffffffffffffffffffffffffffffffffff168473ffffffffffffffffffffffffffffffffffffffff167fddf252ad1be2c89b69c2b068fc378daa952ba7f163c4a11628f55a4df523b3ef60405160405180910390a4612e5183838360016135b4565b505050565b6001816000016000828254019250508190555050565b600081600001549050919050565b600073ffffffffffffffffffffffffffffffffffffffff168273ffffffffffffffffffffffffffffffffffffffff1603612ee9576040517f08c379a0000000000000000000000000000000000000000000000000000000008152600401612ee0906155dc565b60405180910390fd5b612ef28161356d565b15612f32576040517f08c379a0000000000000000000000000000000000000000000000000000000008152600401612f2990615648565b60405180910390fd5b612f406000838360016135ae565b612f498161356d565b15612f89576040517f08c379a0000000000000000000000000000000000000000000000000000000008152600401612f8090615648565b60405180910390fd5b6001600360008473ffffffffffffffffffffffffffffffffffffffff1673ffffffffffffffffffffffffffffffffffffffff16815260200190815260200160002060008282540192505081905550816002600083815260200190815260200160002060006101000a81548173ffffffffffffffffffffffffffffffffffffffff021916908373ffffffffffffffffffffffffffffffffffffffff160217905550808273ffffffffffffffffffffffffffffffffffffffff16600073ffffffffffffffffffffffffffffffffffffffff167fddf252ad1be2c89b69c2b068fc378daa952ba7f163c4a11628f55a4df523b3ef60405160405180910390a46130936000838360016135b4565b5050565b6130a08261356d565b6130df576040517f08c379a00000000000000000000000000000000000000000000000000000000081526004016130d6906156da565b60405180910390fd5b806006600084815260200190815260200160002090816130ff9190615223565b507ff8e1a15aba9398e019f0b49df1a4fde98ee17ae345cb5f6b5e2c27f5033e8ce78260405161312f91906140bc565b60405180910390a15050565b60006002600083815260200190815260200160002060009054906101000a900473ffffffffffffffffffffffffffffffffffffffff169050919050565b613180612a07565b73ffffffffffffffffffffffffffffffffffffffff1661319e612249565b73ffffffffffffffffffffffffffffffffffffffff16146131f4576040517f08c379a00000000000000000000000000000000000000000000000000000000081526004016131eb90615746565b60405180910390fd5b565b6000600760009054906101000a900473ffffffffffffffffffffffffffffffffffffffff16905081600760006101000a81548173ffffffffffffffffffffffffffffffffffffffff021916908373ffffffffffffffffffffffffffffffffffffffff1602179055508173ffffffffffffffffffffffffffffffffffffffff168173ffffffffffffffffffffffffffffffffffffffff167f8be0079c531659141344cd1fd0a4f28419497f9722a3daafe3b4186f6b6457e060405160405180910390a35050565b8173ffffffffffffffffffffffffffffffffffffffff168373ffffffffffffffffffffffffffffffffffffffff160361332a576040517f08c379a0000000000000000000000000000000000000000000000000000000008152600401613321906157b2565b60405180910390fd5b80600560008573ffffffffffffffffffffffffffffffffffffffff1673ffffffffffffffffffffffffffffffffffffffff16815260200190815260200160002060008473ffffffffffffffffffffffffffffffffffffffff1673ffffffffffffffffffffffffffffffffffffffff16815260200190815260200160002060006101000a81548160ff0219169083151502179055508173ffffffffffffffffffffffffffffffffffffffff168373ffffffffffffffffffffffffffffffffffffffff167f17307eab39ab6107e8899845ad3d59bd9653f200f220920489ca2b5937696c318360405161341b9190613af3565b60405180910390a3505050565b613433848484612b5d565b61343f848484846135ba565b61347e576040517f08c379a000000000000000000000000000000000000000000000000000000000815260040161347590615844565b60405180910390fd5b50505050565b606060405180602001604052806000815250905090565b60606134a6826129bc565b60006134b0613484565b905060008151116134d057604051806020016040528060008152506134fb565b806134da84613741565b6040516020016134eb929190614fe7565b6040516020818303038152906040525b915050919050565b60007f01ffc9a7000000000000000000000000000000000000000000000000000000007bffffffffffffffffffffffffffffffffffffffffffffffffffffffff1916827bffffffffffffffffffffffffffffffffffffffffffffffffffffffff1916149050919050565b60008073ffffffffffffffffffffffffffffffffffffffff1661358f8361313b565b73ffffffffffffffffffffffffffffffffffffffff1614159050919050565b50505050565b50505050565b60006135db8473ffffffffffffffffffffffffffffffffffffffff1661380f565b15613734578373ffffffffffffffffffffffffffffffffffffffff1663150b7a02613604612a07565b8786866040518563ffffffff1660e01b815260040161362694939291906158b9565b6020604051808303816000875af192505050801561366257506040513d601f19601f8201168201806040525081019061365f919061591a565b60015b6136e4573d8060008114613692576040519150601f19603f3d011682016040523d82523d6000602084013e613697565b606091505b5060008151036136dc576040517f08c379a00000000000000000000000000000000000000000000000000000000081526004016136d390615844565b60405180910390fd5b805181602001fd5b63150b7a0260e01b7bffffffffffffffffffffffffffffffffffffffffffffffffffffffff1916817bffffffffffffffffffffffffffffffffffffffffffffffffffffffff191614915050613739565b600190505b949350505050565b60606000600161375084613832565b01905060008167ffffffffffffffff81111561376f5761376e6143dd565b5b6040519080825280601f01601f1916602001820160405280156137a15781602001600182028036833780820191505090505b509050600082602001820190505b600115613804578080600190039150507f3031323334353637383961626364656600000000000000000000000000000000600a86061a8153600a85816137f8576137f7614dd9565b5b049450600085036137af575b819350505050919050565b6000808273ffffffffffffffffffffffffffffffffffffffff163b119050919050565b600080600090507a184f03e93ff9f4daa797ed6e38ed64bf6a1f0100000000000000008310613890577a184f03e93ff9f4daa797ed6e38ed64bf6a1f010000000000000000838161388657613885614dd9565b5b0492506040810190505b6d04ee2d6d415b85acef810000000083106138cd576d04ee2d6d415b85acef810000000083816138c3576138c2614dd9565b5b0492506020810190505b662386f26fc1000083106138fc57662386f26fc1000083816138f2576138f1614dd9565b5b0492506010810190505b6305f5e1008310613925576305f5e100838161391b5761391a614dd9565b5b0492506008810190505b612710831061394a5761271083816139405761393f614dd9565b5b0492506004810190505b6064831061396d576064838161396357613962614dd9565b5b0492506002810190505b600a831061397c576001810190505b80915050919050565b60405180610100016040528060608152602001600081526020016000815260200160008152602001600015158152602001600073ffffffffffffffffffffffffffffffffffffffff16815260200160608152602001600081525090565b5080546139ee9061474e565b6000825580601f10613a005750613a1f565b601f016020900490600052602060002090810190613a1e9190613a22565b5b50565b5b80821115613a3b576000816000905550600101613a23565b5090565b6000604051905090565b600080fd5b600080fd5b60007fffffffff0000000000000000000000000000000000000000000000000000000082169050919050565b613a8881613a53565b8114613a9357600080fd5b50565b600081359050613aa581613a7f565b92915050565b600060208284031215613ac157613ac0613a49565b5b6000613acf84828501613a96565b91505092915050565b60008115159050919050565b613aed81613ad8565b82525050565b6000602082019050613b086000830184613ae4565b92915050565b600081519050919050565b600082825260208201905092915050565b60005b83811015613b48578082015181840152602081019050613b2d565b60008484015250505050565b6000601f19601f8301169050919050565b6000613b7082613b0e565b613b7a8185613b19565b9350613b8a818560208601613b2a565b613b9381613b54565b840191505092915050565b60006020820190508181036000830152613bb88184613b65565b905092915050565b6000819050919050565b613bd381613bc0565b8114613bde57600080fd5b50565b600081359050613bf081613bca565b92915050565b600060208284031215613c0c57613c0b613a49565b5b6000613c1a84828501613be1565b91505092915050565b600073ffffffffffffffffffffffffffffffffffffffff82169050919050565b6000613c4e82613c23565b9050919050565b613c5e81613c43565b82525050565b6000602082019050613c796000830184613c55565b92915050565b613c8881613c43565b8114613c9357600080fd5b50565b600081359050613ca581613c7f565b92915050565b60008060408385031215613cc257613cc1613a49565b5b6000613cd085828601613c96565b9250506020613ce185828601613be1565b9150509250929050565b613cf481613bc0565b82525050565b6000610100820190508181036000830152613d15818b613b65565b9050613d24602083018a613ceb565b613d316040830189613ceb565b613d3e6060830188613ceb565b613d4b6080830187613ae4565b613d5860a0830186613c55565b81810360c0830152613d6a8185613b65565b9050613d7960e0830184613ceb565b9998505050505050505050565b600081519050919050565b600082825260208201905092915050565b6000819050602082019050919050565b600082825260208201905092915050565b6000613dce82613b0e565b613dd88185613db2565b9350613de8818560208601613b2a565b613df181613b54565b840191505092915050565b613e0581613bc0565b82525050565b613e1481613ad8565b82525050565b613e2381613c43565b82525050565b6000610100830160008301518482036000860152613e478282613dc3565b9150506020830151613e5c6020860182613dfc565b506040830151613e6f6040860182613dfc565b506060830151613e826060860182613dfc565b506080830151613e956080860182613e0b565b5060a0830151613ea860a0860182613e1a565b5060c083015184820360c0860152613ec08282613dc3565b91505060e0830151613ed560e0860182613dfc565b508091505092915050565b6000613eec8383613e29565b905092915050565b6000602082019050919050565b6000613f0c82613d86565b613f168185613d91565b935083602082028501613f2885613da2565b8060005b85811015613f645784840389528151613f458582613ee0565b9450613f5083613ef4565b925060208a01995050600181019050613f2c565b50829750879550505050505092915050565b60006020820190508181036000830152613f908184613f01565b905092915050565b600081519050919050565b600082825260208201905092915050565b6000819050602082019050919050565b6000613fd08383613dfc565b60208301905092915050565b6000602082019050919050565b6000613ff482613f98565b613ffe8185613fa3565b935061400983613fb4565b8060005b8381101561403a5781516140218882613fc4565b975061402c83613fdc565b92505060018101905061400d565b5085935050505092915050565b600060208201905081810360008301526140618184613fe9565b905092915050565b60008060006060848603121561408257614081613a49565b5b600061409086828701613c96565b93505060206140a186828701613c96565b92505060406140b286828701613be1565b9150509250925092565b60006020820190506140d16000830184613ceb565b92915050565b600080604083850312156140ee576140ed613a49565b5b60006140fc85828601613be1565b925050602061410d85828601613be1565b9150509250929050565b600081519050919050565b600082825260208201905092915050565b6000819050602082019050919050565b6060820160008201516141596000850182613e1a565b50602082015161416c6020850182613dfc565b50604082015161417f6040850182613e0b565b50505050565b60006141918383614143565b60608301905092915050565b6000602082019050919050565b60006141b582614117565b6141bf8185614122565b93506141ca83614133565b8060005b838110156141fb5781516141e28882614185565b97506141ed8361419d565b9250506001810190506141ce565b5085935050505092915050565b6000602082019050818103600083015261422281846141aa565b905092915050565b6000602082840312156142405761423f613a49565b5b600061424e84828501613c96565b91505092915050565b600060608201905061426c6000830186613ceb565b6142796020830185613ceb565b6142866040830184613ceb565b949350505050565b60006101008301600083015184820360008601526142ac8282613dc3565b91505060208301516142c16020860182613dfc565b5060408301516142d46040860182613dfc565b5060608301516142e76060860182613dfc565b5060808301516142fa6080860182613e0b565b5060a083015161430d60a0860182613e1a565b5060c083015184820360c08601526143258282613dc3565b91505060e083015161433a60e0860182613dfc565b508091505092915050565b6000602082019050818103600083015261435f818461428e565b905092915050565b61437081613ad8565b811461437b57600080fd5b50565b60008135905061438d81614367565b92915050565b600080604083850312156143aa576143a9613a49565b5b60006143b885828601613c96565b92505060206143c98582860161437e565b9150509250929050565b600080fd5b600080fd5b7f4e487b7100000000000000000000000000000000000000000000000000000000600052604160045260246000fd5b61441582613b54565b810181811067ffffffffffffffff82111715614434576144336143dd565b5b80604052505050565b6000614447613a3f565b9050614453828261440c565b919050565b600067ffffffffffffffff821115614473576144726143dd565b5b61447c82613b54565b9050602081019050919050565b82818337600083830152505050565b60006144ab6144a684614458565b61443d565b9050828152602081018484840111156144c7576144c66143d8565b5b6144d2848285614489565b509392505050565b600082601f8301126144ef576144ee6143d3565b5b81356144ff848260208601614498565b91505092915050565b6000806000806080858703121561452257614521613a49565b5b600061453087828801613c96565b945050602061454187828801613c96565b935050604061455287828801613be1565b925050606085013567ffffffffffffffff81111561457357614572613a4e565b5b61457f878288016144da565b91505092959194509250565b600067ffffffffffffffff8211156145a6576145a56143dd565b5b6145af82613b54565b9050602081019050919050565b60006145cf6145ca8461458b565b61443d565b9050828152602081018484840111156145eb576145ea6143d8565b5b6145f6848285614489565b509392505050565b600082601f830112614613576146126143d3565b5b81356146238482602086016145bc565b91505092915050565b600080600080600060a0868803121561464857614647613a49565b5b600086013567ffffffffffffffff81111561466657614665613a4e565b5b614672888289016145fe565b955050602061468388828901613be1565b945050604061469488828901613be1565b93505060606146a588828901613be1565b925050608086013567ffffffffffffffff8111156146c6576146c5613a4e565b5b6146d2888289016145fe565b9150509295509295909350565b600080604083850312156146f6576146f5613a49565b5b600061470485828601613c96565b925050602061471585828601613c96565b9150509250929050565b7f4e487b7100000000000000000000000000000000000000000000000000000000600052602260045260246000fd5b6000600282049050600182168061476657607f821691505b6020821081036147795761477861471f565b5b50919050565b7f4552433732313a20617070726f76616c20746f2063757272656e74206f776e6560008201527f7200000000000000000000000000000000000000000000000000000000000000602082015250565b60006147db602183613b19565b91506147e68261477f565b604082019050919050565b6000602082019050818103600083015261480a816147ce565b9050919050565b7f4552433732313a20617070726f76652063616c6c6572206973206e6f7420746f60008201527f6b656e206f776e6572206f7220617070726f76656420666f7220616c6c000000602082015250565b600061486d603d83613b19565b915061487882614811565b604082019050919050565b6000602082019050818103600083015261489c81614860565b9050919050565b7f4e487b7100000000000000000000000000000000000000000000000000000000600052603260045260246000fd5b7f4e487b7100000000000000000000000000000000000000000000000000000000600052601160045260246000fd5b600061490c82613bc0565b91507fffffffffffffffffffffffffffffffffffffffffffffffffffffffffffffffff820361493e5761493d6148d2565b5b600182019050919050565b7f4552433732313a2063616c6c6572206973206e6f7420746f6b656e206f776e6560008201527f72206f7220617070726f76656400000000000000000000000000000000000000602082015250565b60006149a5602d83613b19565b91506149b082614949565b604082019050919050565b600060208201905081810360008301526149d481614998565b9050919050565b7f4576656e7420646f6573206e6f74206578697374206f72206973206e6f74206160008201527f6374697665000000000000000000000000000000000000000000000000000000602082015250565b6000614a37602583613b19565b9150614a42826149db565b604082019050919050565b60006020820190508181036000830152614a6681614a2a565b9050919050565b7f496e73756666696369656e74207061796d656e74000000000000000000000000600082015250565b6000614aa3601483613b19565b9150614aae82614a6d565b602082019050919050565b60006020820190508181036000830152614ad281614a96565b9050919050565b6000614ae482613bc0565b9150614aef83613bc0565b9250828203905081811115614b0757614b066148d2565b5b92915050565b6000606082019050614b226000830186613ceb565b614b2f6020830185613ceb565b614b3c6040830184613c55565b949350505050565b7f5469636b657420646f6573206e6f742065786973740000000000000000000000600082015250565b6000614b7a601583613b19565b9150614b8582614b44565b602082019050919050565b60006020820190508181036000830152614ba981614b6d565b9050919050565b7f5469636b657420697320616c7265616479206c69737465640000000000000000600082015250565b6000614be6601883613b19565b9150614bf182614bb0565b602082019050919050565b60006020820190508181036000830152614c1581614bd9565b9050919050565b7f50726963652065786365656473206d617820726573616c652076616c75650000600082015250565b6000614c52601e83613b19565b9150614c5d82614c1c565b602082019050919050565b60006020820190508181036000830152614c8181614c45565b9050919050565b6000606082019050614c9d6000830186613ceb565b614caa6020830185613c55565b614cb76040830184613ceb565b949350505050565b7f596f7520646f206e6f74206f776e2074686973207469636b6574000000000000600082015250565b6000614cf5601a83613b19565b9150614d0082614cbf565b602082019050919050565b60006020820190508181036000830152614d2481614ce8565b9050919050565b7f4552433732313a20696e76616c696420746f6b656e2049440000000000000000600082015250565b6000614d61601883613b19565b9150614d6c82614d2b565b602082019050919050565b60006020820190508181036000830152614d9081614d54565b9050919050565b6000614da282613bc0565b9150614dad83613bc0565b9250828202614dbb81613bc0565b91508282048414831517614dd257614dd16148d2565b5b5092915050565b7f4e487b7100000000000000000000000000000000000000000000000000000000600052601260045260246000fd5b6000614e1382613bc0565b9150614e1e83613bc0565b925082614e2e57614e2d614dd9565b5b828204905092915050565b7f4e487b7100000000000000000000000000000000000000000000000000000000600052603160045260246000fd5b6000608082019050614e7d6000830187613ceb565b614e8a6020830186613c55565b614e976040830185613c55565b614ea46060830184613ceb565b95945050505050565b7f5469636b6574206973206e6f7420666f722073616c6500000000000000000000600082015250565b6000614ee3601683613b19565b9150614eee82614ead565b602082019050919050565b60006020820190508181036000830152614f1281614ed6565b9050919050565b7f4552433732313a2061646472657373207a65726f206973206e6f74206120766160008201527f6c6964206f776e65720000000000000000000000000000000000000000000000602082015250565b6000614f75602983613b19565b9150614f8082614f19565b604082019050919050565b60006020820190508181036000830152614fa481614f68565b9050919050565b600081905092915050565b6000614fc182613b0e565b614fcb8185614fab565b9350614fdb818560208601613b2a565b80840191505092915050565b6000614ff38285614fb6565b9150614fff8284614fb6565b91508190509392505050565b7f526f79616c74792063616e6e6f74206578636565642032352500000000000000600082015250565b6000615041601983613b19565b915061504c8261500b565b602082019050919050565b6000602082019050818103600083015261507081615034565b9050919050565b60008190508160005260206000209050919050565b60006020601f8301049050919050565b600082821b905092915050565b6000600883026150d97fffffffffffffffffffffffffffffffffffffffffffffffffffffffffffffffff8261509c565b6150e3868361509c565b95508019841693508086168417925050509392505050565b6000819050919050565b600061512061511b61511684613bc0565b6150fb565b613bc0565b9050919050565b6000819050919050565b61513a83615105565b61514e61514682615127565b8484546150a9565b825550505050565b600090565b615163615156565b61516e818484615131565b505050565b5b818110156151925761518760008261515b565b600181019050615174565b5050565b601f8211156151d7576151a881615077565b6151b18461508c565b810160208510156151c0578190505b6151d46151cc8561508c565b830182615173565b50505b505050565b600082821c905092915050565b60006151fa600019846008026151dc565b1980831691505092915050565b600061521383836151e9565b9150826002028217905092915050565b61522c82613b0e565b67ffffffffffffffff811115615245576152446143dd565b5b61524f825461474e565b61525a828285615196565b600060209050601f83116001811461528d576000841561527b578287015190505b6152858582615207565b8655506152ed565b601f19841661529b86615077565b60005b828110156152c35784890151825560018201915060208501945060208101905061529e565b868310156152e057848901516152dc601f8916826151e9565b8355505b6001600288020188555050505b505050505050565b600060808201905061530a6000830187613ceb565b818103602083015261531c8186613b65565b905061532b6040830185613ceb565b818103606083015261533d8184613b65565b905095945050505050565b7f4f776e61626c653a206e6577206f776e657220697320746865207a65726f206160008201527f6464726573730000000000000000000000000000000000000000000000000000602082015250565b60006153a4602683613b19565b91506153af82615348565b604082019050919050565b600060208201905081810360008301526153d381615397565b9050919050565b7f4576656e7420646f6573206e6f74206578697374206f7220697320616c72656160008201527f64792064656c6574656400000000000000000000000000000000000000000000602082015250565b6000615436602a83613b19565b9150615441826153da565b604082019050919050565b6000602082019050818103600083015261546581615429565b9050919050565b7f4552433732313a207472616e736665722066726f6d20696e636f72726563742060008201527f6f776e6572000000000000000000000000000000000000000000000000000000602082015250565b60006154c8602583613b19565b91506154d38261546c565b604082019050919050565b600060208201905081810360008301526154f7816154bb565b9050919050565b7f4552433732313a207472616e7366657220746f20746865207a65726f2061646460008201527f7265737300000000000000000000000000000000000000000000000000000000602082015250565b600061555a602483613b19565b9150615565826154fe565b604082019050919050565b600060208201905081810360008301526155898161554d565b9050919050565b7f4552433732313a206d696e7420746f20746865207a65726f2061646472657373600082015250565b60006155c6602083613b19565b91506155d182615590565b602082019050919050565b600060208201905081810360008301526155f5816155b9565b9050919050565b7f4552433732313a20746f6b656e20616c7265616479206d696e74656400000000600082015250565b6000615632601c83613b19565b915061563d826155fc565b602082019050919050565b6000602082019050818103600083015261566181615625565b9050919050565b7f45524337323155524953746f726167653a2055524920736574206f66206e6f6e60008201527f6578697374656e7420746f6b656e000000000000000000000000000000000000602082015250565b60006156c4602e83613b19565b91506156cf82615668565b604082019050919050565b600060208201905081810360008301526156f3816156b7565b9050919050565b7f4f776e61626c653a2063616c6c6572206973206e6f7420746865206f776e6572600082015250565b6000615730602083613b19565b915061573b826156fa565b602082019050919050565b6000602082019050818103600083015261575f81615723565b9050919050565b7f4552433732313a20617070726f766520746f2063616c6c657200000000000000600082015250565b600061579c601983613b19565b91506157a782615766565b602082019050919050565b600060208201905081810360008301526157cb8161578f565b9050919050565b7f4552433732313a207472616e7366657220746f206e6f6e20455243373231526560008201527f63656976657220696d706c656d656e7465720000000000000000000000000000602082015250565b600061582e603283613b19565b9150615839826157d2565b604082019050919050565b6000602082019050818103600083015261585d81615821565b9050919050565b600081519050919050565b600082825260208201905092915050565b600061588b82615864565b615895818561586f565b93506158a5818560208601613b2a565b6158ae81613b54565b840191505092915050565b60006080820190506158ce6000830187613c55565b6158db6020830186613c55565b6158e86040830185613ceb565b81810360608301526158fa8184615880565b905095945050505050565b60008151905061591481613a7f565b92915050565b6000602082840312156159305761592f613a49565b5b600061593e84828501615905565b9150509291505056fea2646970667358221220b86beb06094c9405ab8aa045b6db8ae2743d4687c20a5b0d16bd9e9c3f5ee28464736f6c63430008110033",
  "immutableReferences": {},
  "source": "// SPDX-License-Identifier: MIT\r\npragma solidity ^0.8.17;\r\n\r\nimport \"@openzeppelin/contracts/token/ERC721/extensions/ERC721URIStorage.sol\";\r\nimport \"@openzeppelin/contracts/access/Ownable.sol\";\r\nimport \"@openzeppelin/contracts/utils/Counters.sol\";\r\n\r\ncontract TicketNFT is ERC721URIStorage, Ownable {\r\n    using Counters for Counters.Counter;\r\n    Counters.Counter private _tokenIds;\r\n    uint256 private _eventIds;\r\n\r\n    struct Event {\r\n        string name;\r\n        uint256 originalPrice;\r\n        uint256 maxResalePrice;\r\n        uint256 royaltyPercentage;\r\n        bool active;\r\n        address organizer;\r\n        string eventURI;\r\n        uint256 eventId;\r\n    }\r\n\r\n    struct TicketOwner {\r\n        address owner;\r\n        uint256 price;\r\n        bool forSale;\r\n    }\r\n\r\n    struct Ticket {\r\n        uint256 tokenId;\r\n        uint256 eventId;\r\n        uint256 originalPrice;\r\n        TicketOwner[] owners;\r\n    }\r\n\r\n    mapping(uint256 => Event) public events;\r\n    mapping(uint256 => Ticket) public tickets;\r\n\r\n    uint256[] public eventList;\r\n    uint256[] public listedTickets;\r\n\r\n    event EventCreated(uint256 eventId, string name, uint256 price, string eventURI);\r\n    event EventDeleted(uint256 eventId);\r\n    event TicketMinted(uint256 tokenId, uint256 eventId, address owner);\r\n    event TicketListed(uint256 tokenId, address owner, uint256 price);\r\n    event TicketSold(uint256 tokenId, address from, address to, uint256 price);\r\n\r\n    constructor() ERC721(\"Event Ticket\", \"TIKT\") Ownable() {}\r\n\r\n    function createEvent(\r\n        string memory name,\r\n        uint256 price,\r\n        uint256 maxResalePrice,\r\n        uint256 royaltyPercentage,\r\n        string memory eventURI\r\n    ) public returns (uint256) {\r\n        require(royaltyPercentage <= 25, \"Royalty cannot exceed 25%\");\r\n\r\n        _eventIds++;\r\n        events[_eventIds] = Event({\r\n            name: name,\r\n            originalPrice: price,\r\n            maxResalePrice: maxResalePrice,\r\n            royaltyPercentage: royaltyPercentage,\r\n            active: true,\r\n            organizer: msg.sender,\r\n            eventURI: eventURI,\r\n            eventId: _eventIds\r\n        });\r\n        eventList.push(_eventIds);\r\n\r\n        emit EventCreated(_eventIds, name, price, eventURI);\r\n        return _eventIds;\r\n    }\r\n\r\n    function deleteEvent(uint256 eventId) public onlyOwner {\r\n        require(events[eventId].active, \"Event does not exist or is already deleted\");\r\n        delete events[eventId];\r\n        emit EventDeleted(eventId);\r\n    }\r\nfunction getEventForTicket(uint256 tokenId) public view returns (Event memory) {\r\n    require(tickets[tokenId].tokenId != 0, \"Ticket does not exist\");\r\n    uint256 eventId = tickets[tokenId].eventId;\r\n    return events[eventId];\r\n}\r\n\r\n    function showEvents() public view returns (Event[] memory) {\r\n        uint256 length = eventList.length;\r\n        Event[] memory eventDetails = new Event[](length);\r\n\r\n        for (uint256 i = 0; i < length; i++) {\r\n            eventDetails[i] = events[eventList[i]];\r\n        }\r\n        return eventDetails;\r\n    }\r\n\r\n    function getEventList() public view returns (uint256[] memory) {\r\n        return eventList;\r\n    }\r\n\r\n    function mintTicket(uint256 eventId) public payable returns (uint256) {\r\n        Event storage eventDetails = events[eventId];\r\n        require(eventDetails.active, \"Event does not exist or is not active\");\r\n        require(msg.value >= eventDetails.originalPrice, \"Insufficient payment\");\r\n\r\n        if (msg.value > eventDetails.originalPrice) {\r\n            payable(msg.sender).transfer(msg.value - eventDetails.originalPrice);\r\n        }\r\n        payable(eventDetails.organizer).transfer(eventDetails.originalPrice);\r\n\r\n        _tokenIds.increment();\r\n        uint256 newTokenId = _tokenIds.current();\r\n\r\n        _mint(msg.sender, newTokenId);\r\n        _setTokenURI(newTokenId, eventDetails.eventURI);\r\n\r\n        tickets[newTokenId].tokenId = newTokenId;\r\n        tickets[newTokenId].eventId = eventId;\r\n        tickets[newTokenId].originalPrice = eventDetails.originalPrice;\r\n        tickets[newTokenId].owners.push(TicketOwner({\r\n            owner: msg.sender,\r\n            price: eventDetails.originalPrice,\r\n            forSale: false\r\n        }));\r\n\r\n        emit TicketMinted(newTokenId, eventId, msg.sender);\r\n        return newTokenId;\r\n    }\r\n\r\n    function listTicket(uint256 tokenId, uint256 price) public {\r\n        Ticket storage ticket = tickets[tokenId];\r\n        require(ticket.tokenId != 0, \"Ticket does not exist\");\r\n\r\n        for (uint256 i = 0; i < ticket.owners.length; i++) {\r\n            if (ticket.owners[i].owner == msg.sender) {\r\n                require(!ticket.owners[i].forSale, \"Ticket is already listed\");\r\n                require(price <= events[ticket.eventId].maxResalePrice, \"Price exceeds max resale value\");\r\n\r\n                ticket.owners[i].forSale = true;\r\n                ticket.owners[i].price = price;\r\n                listedTickets.push(tokenId);\r\n\r\n                emit TicketListed(tokenId, msg.sender, price);\r\n                return;\r\n            }\r\n        }\r\n        revert(\"You do not own this ticket\");\r\n    }\r\n\r\n    function buyTicket(uint256 tokenId) public payable {\r\n        Ticket storage ticket = tickets[tokenId];\r\n        require(ticket.tokenId != 0, \"Ticket does not exist\");\r\n\r\n        for (uint256 i = 0; i < ticket.owners.length; i++) {\r\n            if (ticket.owners[i].forSale) {\r\n                require(msg.value >= ticket.owners[i].price, \"Insufficient payment\");\r\n\r\n                address seller = ticket.owners[i].owner;\r\n                uint256 price = ticket.owners[i].price;\r\n                uint256 royalty = (price * events[ticket.eventId].royaltyPercentage) / 100;\r\n                uint256 sellerProceeds = price - royalty;\r\n\r\n                payable(events[ticket.eventId].organizer).transfer(royalty);\r\n                payable(seller).transfer(sellerProceeds);\r\n\r\n                ticket.owners[i].owner = msg.sender;\r\n                ticket.owners[i].forSale = false;\r\n\r\n                // Remove from listedTickets\r\n                for (uint256 j = 0; j < listedTickets.length; j++) {\r\n                    if (listedTickets[j] == tokenId) {\r\n                        listedTickets[j] = listedTickets[listedTickets.length - 1];\r\n                        listedTickets.pop();\r\n                        break;\r\n                    }\r\n                }\r\n\r\n                emit TicketSold(tokenId, seller, msg.sender, price);\r\n                return;\r\n            }\r\n        }\r\n        revert(\"Ticket is not for sale\");\r\n    }\r\n\r\n    function showListedTickets() public view returns (uint256[] memory) {\r\n        return listedTickets;\r\n    }\r\n\r\n    function getTicketOwners(uint256 tokenId) public view returns (TicketOwner[] memory) {\r\n        return tickets[tokenId].owners;\r\n    }\r\n\r\n    ///  New function to get tokenIds owned by a specific address\r\n    function getOwnedTickets(address user) public view returns (uint256[] memory) {\r\n        uint256 total = _tokenIds.current();\r\n        uint256 count = 0;\r\n\r\n        // First loop to count how many tokens are owned by `user`\r\n        for (uint256 i = 1; i <= total; i++) {\r\n            Ticket storage ticket = tickets[i];\r\n            if (\r\n                ticket.owners.length > 0 &&\r\n                ticket.owners[ticket.owners.length - 1].owner == user\r\n            ) {\r\n                count++;\r\n            }\r\n        }\r\n\r\n        uint256[] memory result = new uint256[](count);\r\n        uint256 index = 0;\r\n\r\n        // Second loop to collect the token IDs\r\n        for (uint256 i = 1; i <= total; i++) {\r\n            Ticket storage ticket = tickets[i];\r\n            if (\r\n                ticket.owners.length > 0 &&\r\n                ticket.owners[ticket.owners.length - 1].owner == user\r\n            ) {\r\n                result[index] = i;\r\n                index++;\r\n            }\r\n        }\r\n\r\n        return result;\r\n    }\r\n}\r\n",
  "sourcePath": "E:\\okay\\contracts\\TicketNFT.sol",
  "compiler": {
    "name": "solc",
    "version": "0.8.17+commit.8df45f5f.Emscripten.clang"
  },
  "schemaVersion": "3.4.16",
  "updatedAt": "2025-04-06T06:33:34.023Z",
  "networkType": "ethereum",
  "devdoc": {
    "kind": "dev",
    "methods": {
      "approve(address,uint256)": {
        "details": "See {IERC721-approve}."
      },
      "balanceOf(address)": {
        "details": "See {IERC721-balanceOf}."
      },
      "getApproved(uint256)": {
        "details": "See {IERC721-getApproved}."
      },
      "isApprovedForAll(address,address)": {
        "details": "See {IERC721-isApprovedForAll}."
      },
      "name()": {
        "details": "See {IERC721Metadata-name}."
      },
      "owner()": {
        "details": "Returns the address of the current owner."
      },
      "ownerOf(uint256)": {
        "details": "See {IERC721-ownerOf}."
      },
      "renounceOwnership()": {
        "details": "Leaves the contract without owner. It will not be possible to call `onlyOwner` functions. Can only be called by the current owner. NOTE: Renouncing ownership will leave the contract without an owner, thereby disabling any functionality that is only available to the owner."
      },
      "safeTransferFrom(address,address,uint256)": {
        "details": "See {IERC721-safeTransferFrom}."
      },
      "safeTransferFrom(address,address,uint256,bytes)": {
        "details": "See {IERC721-safeTransferFrom}."
      },
      "setApprovalForAll(address,bool)": {
        "details": "See {IERC721-setApprovalForAll}."
      },
      "supportsInterface(bytes4)": {
        "details": "See {IERC165-supportsInterface}"
      },
      "symbol()": {
        "details": "See {IERC721Metadata-symbol}."
      },
      "tokenURI(uint256)": {
        "details": "See {IERC721Metadata-tokenURI}."
      },
      "transferFrom(address,address,uint256)": {
        "details": "See {IERC721-transferFrom}."
      },
      "transferOwnership(address)": {
        "details": "Transfers ownership of the contract to a new account (`newOwner`). Can only be called by the current owner."
      }
    },
    "version": 1
  },
  "userdoc": {
    "kind": "user",
    "methods": {
      "getOwnedTickets(address)": {
        "notice": " New function to get tokenIds owned by a specific address"
      }
    },
    "version": 1
  }
}